{
  "_format": "hh-sol-artifact-1",
  "contractName": "Educa",
  "sourceName": "contracts/Educa.sol",
  "abi": [
    {
      "inputs": [
        {
          "internalType": "address",
          "name": "_donationToken",
          "type": "address"
        }
      ],
      "stateMutability": "nonpayable",
      "type": "constructor"
    },
    {
      "anonymous": false,
      "inputs": [
        {
          "indexed": true,
          "internalType": "address",
          "name": "owner",
          "type": "address"
        },
        {
          "indexed": true,
          "internalType": "address",
          "name": "spender",
          "type": "address"
        },
        {
          "indexed": false,
          "internalType": "uint256",
          "name": "value",
          "type": "uint256"
        }
      ],
      "name": "Approval",
      "type": "event"
    },
    {
      "anonymous": false,
      "inputs": [
        {
          "indexed": true,
          "internalType": "bytes32",
          "name": "role",
          "type": "bytes32"
        },
        {
          "indexed": true,
          "internalType": "bytes32",
          "name": "previousAdminRole",
          "type": "bytes32"
        },
        {
          "indexed": true,
          "internalType": "bytes32",
          "name": "newAdminRole",
          "type": "bytes32"
        }
      ],
      "name": "RoleAdminChanged",
      "type": "event"
    },
    {
      "anonymous": false,
      "inputs": [
        {
          "indexed": true,
          "internalType": "bytes32",
          "name": "role",
          "type": "bytes32"
        },
        {
          "indexed": true,
          "internalType": "address",
          "name": "account",
          "type": "address"
        },
        {
          "indexed": true,
          "internalType": "address",
          "name": "sender",
          "type": "address"
        }
      ],
      "name": "RoleGranted",
      "type": "event"
    },
    {
      "anonymous": false,
      "inputs": [
        {
          "indexed": true,
          "internalType": "bytes32",
          "name": "role",
          "type": "bytes32"
        },
        {
          "indexed": true,
          "internalType": "address",
          "name": "account",
          "type": "address"
        },
        {
          "indexed": true,
          "internalType": "address",
          "name": "sender",
          "type": "address"
        }
      ],
      "name": "RoleRevoked",
      "type": "event"
    },
    {
      "anonymous": false,
      "inputs": [
        {
          "indexed": true,
          "internalType": "address",
          "name": "from",
          "type": "address"
        },
        {
          "indexed": true,
          "internalType": "address",
          "name": "to",
          "type": "address"
        },
        {
          "indexed": false,
          "internalType": "uint256",
          "name": "value",
          "type": "uint256"
        }
      ],
      "name": "Transfer",
      "type": "event"
    },
    {
      "inputs": [],
      "name": "DEFAULT_ADMIN_ROLE",
      "outputs": [
        {
          "internalType": "bytes32",
          "name": "",
          "type": "bytes32"
        }
      ],
      "stateMutability": "view",
      "type": "function"
    },
    {
      "inputs": [
        {
          "internalType": "uint256",
          "name": "_amount",
          "type": "uint256"
        }
      ],
      "name": "addDonationPoolBalance",
      "outputs": [],
      "stateMutability": "nonpayable",
      "type": "function"
    },
    {
      "inputs": [
        {
          "internalType": "address",
          "name": "owner",
          "type": "address"
        },
        {
          "internalType": "address",
          "name": "spender",
          "type": "address"
        }
      ],
      "name": "allowance",
      "outputs": [
        {
          "internalType": "uint256",
          "name": "",
          "type": "uint256"
        }
      ],
      "stateMutability": "view",
      "type": "function"
    },
    {
      "inputs": [
        {
          "internalType": "address",
          "name": "spender",
          "type": "address"
        },
        {
          "internalType": "uint256",
          "name": "amount",
          "type": "uint256"
        }
      ],
      "name": "approve",
      "outputs": [
        {
          "internalType": "bool",
          "name": "",
          "type": "bool"
        }
      ],
      "stateMutability": "nonpayable",
      "type": "function"
    },
    {
      "inputs": [],
      "name": "attendanceToken",
      "outputs": [
        {
          "internalType": "contract Attendance",
          "name": "",
          "type": "address"
        }
      ],
      "stateMutability": "view",
      "type": "function"
    },
    {
      "inputs": [
        {
          "internalType": "address",
          "name": "account",
          "type": "address"
        }
      ],
      "name": "balanceOf",
      "outputs": [
        {
          "internalType": "uint256",
          "name": "",
          "type": "uint256"
        }
      ],
      "stateMutability": "view",
      "type": "function"
    },
    {
      "inputs": [],
      "name": "claimNFT",
      "outputs": [],
      "stateMutability": "nonpayable",
      "type": "function"
    },
    {
      "inputs": [
        {
          "internalType": "address",
          "name": "_student",
          "type": "address"
        },
        {
          "internalType": "string",
          "name": "tokenURI",
          "type": "string"
        }
      ],
      "name": "confirmAttendance",
      "outputs": [],
      "stateMutability": "nonpayable",
      "type": "function"
    },
    {
      "inputs": [],
      "name": "dailyAmount",
      "outputs": [
        {
          "internalType": "uint256",
          "name": "",
          "type": "uint256"
        }
      ],
      "stateMutability": "view",
      "type": "function"
    },
    {
      "inputs": [],
      "name": "decimals",
      "outputs": [
        {
          "internalType": "uint8",
          "name": "",
          "type": "uint8"
        }
      ],
      "stateMutability": "view",
      "type": "function"
    },
    {
      "inputs": [
        {
          "internalType": "address",
          "name": "spender",
          "type": "address"
        },
        {
          "internalType": "uint256",
          "name": "subtractedValue",
          "type": "uint256"
        }
      ],
      "name": "decreaseAllowance",
      "outputs": [
        {
          "internalType": "bool",
          "name": "",
          "type": "bool"
        }
      ],
      "stateMutability": "nonpayable",
      "type": "function"
    },
    {
      "inputs": [],
      "name": "donationToken",
      "outputs": [
        {
          "internalType": "contract IERC20",
          "name": "",
          "type": "address"
        }
      ],
      "stateMutability": "view",
      "type": "function"
    },
    {
      "inputs": [
        {
          "internalType": "bytes32",
          "name": "role",
          "type": "bytes32"
        }
      ],
      "name": "getRoleAdmin",
      "outputs": [
        {
          "internalType": "bytes32",
          "name": "",
          "type": "bytes32"
        }
      ],
      "stateMutability": "view",
      "type": "function"
    },
    {
      "inputs": [
        {
          "internalType": "bytes32",
          "name": "role",
          "type": "bytes32"
        },
        {
          "internalType": "address",
          "name": "account",
          "type": "address"
        }
      ],
      "name": "grantRole",
      "outputs": [],
      "stateMutability": "nonpayable",
      "type": "function"
    },
    {
      "inputs": [
        {
          "internalType": "bytes32",
          "name": "role",
          "type": "bytes32"
        },
        {
          "internalType": "address",
          "name": "account",
          "type": "address"
        }
      ],
      "name": "hasRole",
      "outputs": [
        {
          "internalType": "bool",
          "name": "",
          "type": "bool"
        }
      ],
      "stateMutability": "view",
      "type": "function"
    },
    {
      "inputs": [
        {
          "internalType": "address",
          "name": "spender",
          "type": "address"
        },
        {
          "internalType": "uint256",
          "name": "addedValue",
          "type": "uint256"
        }
      ],
      "name": "increaseAllowance",
      "outputs": [
        {
          "internalType": "bool",
          "name": "",
          "type": "bool"
        }
      ],
      "stateMutability": "nonpayable",
      "type": "function"
    },
    {
      "inputs": [],
      "name": "name",
      "outputs": [
        {
          "internalType": "string",
          "name": "",
          "type": "string"
        }
      ],
      "stateMutability": "view",
      "type": "function"
    },
    {
      "inputs": [
        {
          "internalType": "bytes32",
          "name": "role",
          "type": "bytes32"
        },
        {
          "internalType": "address",
          "name": "account",
          "type": "address"
        }
      ],
      "name": "renounceRole",
      "outputs": [],
      "stateMutability": "nonpayable",
      "type": "function"
    },
    {
      "inputs": [
        {
          "internalType": "bytes32",
          "name": "role",
          "type": "bytes32"
        },
        {
          "internalType": "address",
          "name": "account",
          "type": "address"
        }
      ],
      "name": "revokeRole",
      "outputs": [],
      "stateMutability": "nonpayable",
      "type": "function"
    },
    {
      "inputs": [
        {
          "internalType": "bytes4",
          "name": "interfaceId",
          "type": "bytes4"
        }
      ],
      "name": "supportsInterface",
      "outputs": [
        {
          "internalType": "bool",
          "name": "",
          "type": "bool"
        }
      ],
      "stateMutability": "view",
      "type": "function"
    },
    {
      "inputs": [],
      "name": "symbol",
      "outputs": [
        {
          "internalType": "string",
          "name": "",
          "type": "string"
        }
      ],
      "stateMutability": "view",
      "type": "function"
    },
    {
      "inputs": [],
      "name": "totalSupply",
      "outputs": [
        {
          "internalType": "uint256",
          "name": "",
          "type": "uint256"
        }
      ],
      "stateMutability": "view",
      "type": "function"
    },
    {
      "inputs": [
        {
          "internalType": "address",
          "name": "to",
          "type": "address"
        },
        {
          "internalType": "uint256",
          "name": "amount",
          "type": "uint256"
        }
      ],
      "name": "transfer",
      "outputs": [
        {
          "internalType": "bool",
          "name": "",
          "type": "bool"
        }
      ],
      "stateMutability": "nonpayable",
      "type": "function"
    },
    {
      "inputs": [
        {
          "internalType": "address",
          "name": "from",
          "type": "address"
        },
        {
          "internalType": "address",
          "name": "to",
          "type": "address"
        },
        {
          "internalType": "uint256",
          "name": "amount",
          "type": "uint256"
        }
      ],
      "name": "transferFrom",
      "outputs": [
        {
          "internalType": "bool",
          "name": "",
          "type": "bool"
        }
      ],
      "stateMutability": "nonpayable",
      "type": "function"
    }
  ],
  "bytecode": "0x60806040523480156200001157600080fd5b5060405162006d7f38038062006d7f8339818101604052810190620000379190620002bb565b6040518060400160405280600581526020017f45647563610000000000000000000000000000000000000000000000000000008152506040518060400160405280600381526020017f45444300000000000000000000000000000000000000000000000000000000008152508160039080519060200190620000bb92919062000193565b508060049080519060200190620000d492919062000193565b50505080600660006101000a81548173ffffffffffffffffffffffffffffffffffffffff021916908373ffffffffffffffffffffffffffffffffffffffff160217905550604051620001269062000224565b604051809103906000f08015801562000143573d6000803e3d6000fd5b50600760006101000a81548173ffffffffffffffffffffffffffffffffffffffff021916908373ffffffffffffffffffffffffffffffffffffffff1602179055506005600a819055505062000352565b828054620001a1906200031c565b90600052602060002090601f016020900481019282620001c5576000855562000211565b82601f10620001e057805160ff191683800117855562000211565b8280016001018555821562000211579182015b8281111562000210578251825591602001919060010190620001f3565b5b50905062000220919062000232565b5090565b61388480620034fb83390190565b5b808211156200024d57600081600090555060010162000233565b5090565b600080fd5b600073ffffffffffffffffffffffffffffffffffffffff82169050919050565b6000620002838262000256565b9050919050565b620002958162000276565b8114620002a157600080fd5b50565b600081519050620002b5816200028a565b92915050565b600060208284031215620002d457620002d362000251565b5b6000620002e484828501620002a4565b91505092915050565b7f4e487b7100000000000000000000000000000000000000000000000000000000600052602260045260246000fd5b600060028204905060018216806200033557607f821691505b602082108114156200034c576200034b620002ed565b5b50919050565b61319980620003626000396000f3fe608060405234801561001057600080fd5b50600436106101585760003560e01c8063672756ad116100c3578063a457c2d71161007c578063a457c2d7146103dd578063a9059cbb1461040d578063a9b5e2ea1461043d578063d547741f1461045b578063dd62ed3e14610477578063deb63476146104a757610158565b8063672756ad1461031b57806370a082311461032557806373e9a7121461035557806391d148541461037157806395d89b41146103a1578063a217fddf146103bf57610158565b8063248a9ca311610115578063248a9ca3146102475780632f2ff15d14610277578063313ce5671461029357806336568abe146102b157806339509351146102cd57806359c1334b146102fd57610158565b806301ffc9a71461015d57806306fdde031461018d578063095ea7b3146101ab5780630df72159146101db57806318160ddd146101f957806323b872dd14610217575b600080fd5b61017760048036038101906101729190611e6a565b6104c3565b6040516101849190611eb2565b60405180910390f35b61019561053d565b6040516101a29190611f66565b60405180910390f35b6101c560048036038101906101c0919061201c565b6105cf565b6040516101d29190611eb2565b60405180910390f35b6101e36105f2565b6040516101f091906120bb565b60405180910390f35b610201610618565b60405161020e91906120e5565b60405180910390f35b610231600480360381019061022c9190612100565b610622565b60405161023e9190611eb2565b60405180910390f35b610261600480360381019061025c9190612189565b610651565b60405161026e91906121c5565b60405180910390f35b610291600480360381019061028c91906121e0565b610671565b005b61029b61069a565b6040516102a8919061223c565b60405180910390f35b6102cb60048036038101906102c691906121e0565b6106a3565b005b6102e760048036038101906102e2919061201c565b610726565b6040516102f49190611eb2565b60405180910390f35b6103056107d0565b60405161031291906120e5565b60405180910390f35b6103236107d6565b005b61033f600480360381019061033a9190612257565b61087d565b60405161034c91906120e5565b60405180910390f35b61036f600480360381019061036a91906123b9565b6108c5565b005b61038b600480360381019061038691906121e0565b6109b7565b6040516103989190611eb2565b60405180910390f35b6103a9610a22565b6040516103b69190611f66565b60405180910390f35b6103c7610ab4565b6040516103d491906121c5565b60405180910390f35b6103f760048036038101906103f2919061201c565b610abb565b6040516104049190611eb2565b60405180910390f35b6104276004803603810190610422919061201c565b610ba5565b6040516104349190611eb2565b60405180910390f35b610445610bc8565b6040516104529190612436565b60405180910390f35b610475600480360381019061047091906121e0565b610bee565b005b610491600480360381019061048c9190612451565b610c17565b60405161049e91906120e5565b60405180910390f35b6104c160048036038101906104bc9190612491565b610c9e565b005b60007f7965db0b000000000000000000000000000000000000000000000000000000007bffffffffffffffffffffffffffffffffffffffffffffffffffffffff1916827bffffffffffffffffffffffffffffffffffffffffffffffffffffffff19161480610536575061053582610d3d565b5b9050919050565b60606003805461054c906124ed565b80601f0160208091040260200160405190810160405280929190818152602001828054610578906124ed565b80156105c55780601f1061059a576101008083540402835291602001916105c5565b820191906000526020600020905b8154815290600101906020018083116105a857829003601f168201915b5050505050905090565b6000806105da610da7565b90506105e7818585610daf565b600191505092915050565b600660009054906101000a900473ffffffffffffffffffffffffffffffffffffffff1681565b6000600254905090565b60008061062d610da7565b905061063a858285610f7a565b610645858585611006565b60019150509392505050565b600060056000838152602001908152602001600020600101549050919050565b61067a82610651565b61068b81610686610da7565b611287565b6106958383611324565b505050565b60006012905090565b6106ab610da7565b73ffffffffffffffffffffffffffffffffffffffff168173ffffffffffffffffffffffffffffffffffffffff1614610718576040517f08c379a000000000000000000000000000000000000000000000000000000000815260040161070f90612591565b60405180910390fd5b6107228282611405565b5050565b600080610731610da7565b90506107c5818585600160008673ffffffffffffffffffffffffffffffffffffffff1673ffffffffffffffffffffffffffffffffffffffff16815260200190815260200160002060008973ffffffffffffffffffffffffffffffffffffffff1673ffffffffffffffffffffffffffffffffffffffff168152602001908152602001600020546107c091906125e0565b610daf565b600191505092915050565b600a5481565b6107e13360016114e7565b600760009054906101000a900473ffffffffffffffffffffffffffffffffffffffff1673ffffffffffffffffffffffffffffffffffffffff166342842e0e303361082b60096116be565b6040518463ffffffff1660e01b815260040161084993929190612645565b600060405180830381600087803b15801561086357600080fd5b505af1158015610877573d6000803e3d6000fd5b50505050565b60008060008373ffffffffffffffffffffffffffffffffffffffff1673ffffffffffffffffffffffffffffffffffffffff168152602001908152602001600020549050919050565b600760009054906101000a900473ffffffffffffffffffffffffffffffffffffffff1673ffffffffffffffffffffffffffffffffffffffff1663e8e8cb42826040518263ffffffff1660e01b81526004016109209190611f66565b6020604051808303816000875af115801561093f573d6000803e3d6000fd5b505050506040513d601f19601f820116820180604052508101906109639190612691565b506109b382600a54600660009054906101000a900473ffffffffffffffffffffffffffffffffffffffff1673ffffffffffffffffffffffffffffffffffffffff166116cc9092919063ffffffff16565b5050565b60006005600084815260200190815260200160002060000160008373ffffffffffffffffffffffffffffffffffffffff1673ffffffffffffffffffffffffffffffffffffffff16815260200190815260200160002060009054906101000a900460ff16905092915050565b606060048054610a31906124ed565b80601f0160208091040260200160405190810160405280929190818152602001828054610a5d906124ed565b8015610aaa5780601f10610a7f57610100808354040283529160200191610aaa565b820191906000526020600020905b815481529060010190602001808311610a8d57829003601f168201915b5050505050905090565b6000801b81565b600080610ac6610da7565b90506000600160008373ffffffffffffffffffffffffffffffffffffffff1673ffffffffffffffffffffffffffffffffffffffff16815260200190815260200160002060008673ffffffffffffffffffffffffffffffffffffffff1673ffffffffffffffffffffffffffffffffffffffff16815260200190815260200160002054905083811015610b8c576040517f08c379a0000000000000000000000000000000000000000000000000000000008152600401610b8390612730565b60405180910390fd5b610b998286868403610daf565b60019250505092915050565b600080610bb0610da7565b9050610bbd818585611006565b600191505092915050565b600760009054906101000a900473ffffffffffffffffffffffffffffffffffffffff1681565b610bf782610651565b610c0881610c03610da7565b611287565b610c128383611405565b505050565b6000600160008473ffffffffffffffffffffffffffffffffffffffff1673ffffffffffffffffffffffffffffffffffffffff16815260200190815260200160002060008373ffffffffffffffffffffffffffffffffffffffff1673ffffffffffffffffffffffffffffffffffffffff16815260200190815260200160002054905092915050565b60008111610ce1576040517f08c379a0000000000000000000000000000000000000000000000000000000008152600401610cd89061279c565b60405180910390fd5b610d30333083600660009054906101000a900473ffffffffffffffffffffffffffffffffffffffff1673ffffffffffffffffffffffffffffffffffffffff16611752909392919063ffffffff16565b610d3a33826117db565b50565b60007f01ffc9a7000000000000000000000000000000000000000000000000000000007bffffffffffffffffffffffffffffffffffffffffffffffffffffffff1916827bffffffffffffffffffffffffffffffffffffffffffffffffffffffff1916149050919050565b600033905090565b600073ffffffffffffffffffffffffffffffffffffffff168373ffffffffffffffffffffffffffffffffffffffff161415610e1f576040517f08c379a0000000000000000000000000000000000000000000000000000000008152600401610e169061282e565b60405180910390fd5b600073ffffffffffffffffffffffffffffffffffffffff168273ffffffffffffffffffffffffffffffffffffffff161415610e8f576040517f08c379a0000000000000000000000000000000000000000000000000000000008152600401610e86906128c0565b60405180910390fd5b80600160008573ffffffffffffffffffffffffffffffffffffffff1673ffffffffffffffffffffffffffffffffffffffff16815260200190815260200160002060008473ffffffffffffffffffffffffffffffffffffffff1673ffffffffffffffffffffffffffffffffffffffff168152602001908152602001600020819055508173ffffffffffffffffffffffffffffffffffffffff168373ffffffffffffffffffffffffffffffffffffffff167f8c5be1e5ebec7d5bd14f71427d1e84f3dd0314c0f7b2291e5b200ac8c7c3b92583604051610f6d91906120e5565b60405180910390a3505050565b6000610f868484610c17565b90507fffffffffffffffffffffffffffffffffffffffffffffffffffffffffffffffff81146110005781811015610ff2576040517f08c379a0000000000000000000000000000000000000000000000000000000008152600401610fe99061292c565b60405180910390fd5b610fff8484848403610daf565b5b50505050565b600073ffffffffffffffffffffffffffffffffffffffff168373ffffffffffffffffffffffffffffffffffffffff161415611076576040517f08c379a000000000000000000000000000000000000000000000000000000000815260040161106d906129be565b60405180910390fd5b600073ffffffffffffffffffffffffffffffffffffffff168273ffffffffffffffffffffffffffffffffffffffff1614156110e6576040517f08c379a00000000000000000000000000000000000000000000000000000000081526004016110dd90612a50565b60405180910390fd5b6110f183838361193b565b60008060008573ffffffffffffffffffffffffffffffffffffffff1673ffffffffffffffffffffffffffffffffffffffff16815260200190815260200160002054905081811015611177576040517f08c379a000000000000000000000000000000000000000000000000000000000815260040161116e90612ae2565b60405180910390fd5b8181036000808673ffffffffffffffffffffffffffffffffffffffff1673ffffffffffffffffffffffffffffffffffffffff16815260200190815260200160002081905550816000808573ffffffffffffffffffffffffffffffffffffffff1673ffffffffffffffffffffffffffffffffffffffff168152602001908152602001600020600082825461120a91906125e0565b925050819055508273ffffffffffffffffffffffffffffffffffffffff168473ffffffffffffffffffffffffffffffffffffffff167fddf252ad1be2c89b69c2b068fc378daa952ba7f163c4a11628f55a4df523b3ef8460405161126e91906120e5565b60405180910390a3611281848484611940565b50505050565b61129182826109b7565b611320576112b68173ffffffffffffffffffffffffffffffffffffffff166014611945565b6112c48360001c6020611945565b6040516020016112d5929190612bd6565b6040516020818303038152906040526040517f08c379a00000000000000000000000000000000000000000000000000000000081526004016113179190611f66565b60405180910390fd5b5050565b61132e82826109b7565b6114015760016005600084815260200190815260200160002060000160008373ffffffffffffffffffffffffffffffffffffffff1673ffffffffffffffffffffffffffffffffffffffff16815260200190815260200160002060006101000a81548160ff0219169083151502179055506113a6610da7565b73ffffffffffffffffffffffffffffffffffffffff168173ffffffffffffffffffffffffffffffffffffffff16837f2f8788117e7eff1d82e926ec794901d17c78024a50270940304540a733656f0d60405160405180910390a45b5050565b61140f82826109b7565b156114e35760006005600084815260200190815260200160002060000160008373ffffffffffffffffffffffffffffffffffffffff1673ffffffffffffffffffffffffffffffffffffffff16815260200190815260200160002060006101000a81548160ff021916908315150217905550611488610da7565b73ffffffffffffffffffffffffffffffffffffffff168173ffffffffffffffffffffffffffffffffffffffff16837ff6391f5c32d9c69d2a47ea670b442974b53935d1edc7fd64eb21e047a839171b60405160405180910390a45b5050565b600073ffffffffffffffffffffffffffffffffffffffff168273ffffffffffffffffffffffffffffffffffffffff161415611557576040517f08c379a000000000000000000000000000000000000000000000000000000000815260040161154e90612c82565b60405180910390fd5b6115638260008361193b565b60008060008473ffffffffffffffffffffffffffffffffffffffff1673ffffffffffffffffffffffffffffffffffffffff168152602001908152602001600020549050818110156115e9576040517f08c379a00000000000000000000000000000000000000000000000000000000081526004016115e090612d14565b60405180910390fd5b8181036000808573ffffffffffffffffffffffffffffffffffffffff1673ffffffffffffffffffffffffffffffffffffffff1681526020019081526020016000208190555081600260008282546116409190612d34565b92505081905550600073ffffffffffffffffffffffffffffffffffffffff168373ffffffffffffffffffffffffffffffffffffffff167fddf252ad1be2c89b69c2b068fc378daa952ba7f163c4a11628f55a4df523b3ef846040516116a591906120e5565b60405180910390a36116b983600084611940565b505050565b600081600001549050919050565b61174d8363a9059cbb60e01b84846040516024016116eb929190612d68565b604051602081830303815290604052907bffffffffffffffffffffffffffffffffffffffffffffffffffffffff19166020820180517bffffffffffffffffffffffffffffffffffffffffffffffffffffffff8381831617835250505050611b81565b505050565b6117d5846323b872dd60e01b85858560405160240161177393929190612645565b604051602081830303815290604052907bffffffffffffffffffffffffffffffffffffffffffffffffffffffff19166020820180517bffffffffffffffffffffffffffffffffffffffffffffffffffffffff8381831617835250505050611b81565b50505050565b600073ffffffffffffffffffffffffffffffffffffffff168273ffffffffffffffffffffffffffffffffffffffff16141561184b576040517f08c379a000000000000000000000000000000000000000000000000000000000815260040161184290612ddd565b60405180910390fd5b6118576000838361193b565b806002600082825461186991906125e0565b92505081905550806000808473ffffffffffffffffffffffffffffffffffffffff1673ffffffffffffffffffffffffffffffffffffffff16815260200190815260200160002060008282546118be91906125e0565b925050819055508173ffffffffffffffffffffffffffffffffffffffff16600073ffffffffffffffffffffffffffffffffffffffff167fddf252ad1be2c89b69c2b068fc378daa952ba7f163c4a11628f55a4df523b3ef8360405161192391906120e5565b60405180910390a361193760008383611940565b5050565b505050565b505050565b6060600060028360026119589190612dfd565b61196291906125e0565b67ffffffffffffffff81111561197b5761197a61228e565b5b6040519080825280601f01601f1916602001820160405280156119ad5781602001600182028036833780820191505090505b5090507f3000000000000000000000000000000000000000000000000000000000000000816000815181106119e5576119e4612e57565b5b60200101907effffffffffffffffffffffffffffffffffffffffffffffffffffffffffffff1916908160001a9053507f780000000000000000000000000000000000000000000000000000000000000081600181518110611a4957611a48612e57565b5b60200101907effffffffffffffffffffffffffffffffffffffffffffffffffffffffffffff1916908160001a90535060006001846002611a899190612dfd565b611a9391906125e0565b90505b6001811115611b33577f3031323334353637383961626364656600000000000000000000000000000000600f861660108110611ad557611ad4612e57565b5b1a60f81b828281518110611aec57611aeb612e57565b5b60200101907effffffffffffffffffffffffffffffffffffffffffffffffffffffffffffff1916908160001a905350600485901c945080611b2c90612e86565b9050611a96565b5060008414611b77576040517f08c379a0000000000000000000000000000000000000000000000000000000008152600401611b6e90612efc565b60405180910390fd5b8091505092915050565b6000611be3826040518060400160405280602081526020017f5361666545524332303a206c6f772d6c6576656c2063616c6c206661696c65648152508573ffffffffffffffffffffffffffffffffffffffff16611c489092919063ffffffff16565b9050600081511115611c435780806020019051810190611c039190612f48565b611c42576040517f08c379a0000000000000000000000000000000000000000000000000000000008152600401611c3990612fe7565b60405180910390fd5b5b505050565b6060611c578484600085611c60565b90509392505050565b606082471015611ca5576040517f08c379a0000000000000000000000000000000000000000000000000000000008152600401611c9c90613079565b60405180910390fd5b611cae85611d74565b611ced576040517f08c379a0000000000000000000000000000000000000000000000000000000008152600401611ce4906130e5565b60405180910390fd5b6000808673ffffffffffffffffffffffffffffffffffffffff168587604051611d16919061314c565b60006040518083038185875af1925050503d8060008114611d53576040519150601f19603f3d011682016040523d82523d6000602084013e611d58565b606091505b5091509150611d68828286611d97565b92505050949350505050565b6000808273ffffffffffffffffffffffffffffffffffffffff163b119050919050565b60608315611da757829050611df7565b600083511115611dba5782518084602001fd5b816040517f08c379a0000000000000000000000000000000000000000000000000000000008152600401611dee9190611f66565b60405180910390fd5b9392505050565b6000604051905090565b600080fd5b600080fd5b60007fffffffff0000000000000000000000000000000000000000000000000000000082169050919050565b611e4781611e12565b8114611e5257600080fd5b50565b600081359050611e6481611e3e565b92915050565b600060208284031215611e8057611e7f611e08565b5b6000611e8e84828501611e55565b91505092915050565b60008115159050919050565b611eac81611e97565b82525050565b6000602082019050611ec76000830184611ea3565b92915050565b600081519050919050565b600082825260208201905092915050565b60005b83811015611f07578082015181840152602081019050611eec565b83811115611f16576000848401525b50505050565b6000601f19601f8301169050919050565b6000611f3882611ecd565b611f428185611ed8565b9350611f52818560208601611ee9565b611f5b81611f1c565b840191505092915050565b60006020820190508181036000830152611f808184611f2d565b905092915050565b600073ffffffffffffffffffffffffffffffffffffffff82169050919050565b6000611fb382611f88565b9050919050565b611fc381611fa8565b8114611fce57600080fd5b50565b600081359050611fe081611fba565b92915050565b6000819050919050565b611ff981611fe6565b811461200457600080fd5b50565b60008135905061201681611ff0565b92915050565b6000806040838503121561203357612032611e08565b5b600061204185828601611fd1565b925050602061205285828601612007565b9150509250929050565b6000819050919050565b600061208161207c61207784611f88565b61205c565b611f88565b9050919050565b600061209382612066565b9050919050565b60006120a582612088565b9050919050565b6120b58161209a565b82525050565b60006020820190506120d060008301846120ac565b92915050565b6120df81611fe6565b82525050565b60006020820190506120fa60008301846120d6565b92915050565b60008060006060848603121561211957612118611e08565b5b600061212786828701611fd1565b935050602061213886828701611fd1565b925050604061214986828701612007565b9150509250925092565b6000819050919050565b61216681612153565b811461217157600080fd5b50565b6000813590506121838161215d565b92915050565b60006020828403121561219f5761219e611e08565b5b60006121ad84828501612174565b91505092915050565b6121bf81612153565b82525050565b60006020820190506121da60008301846121b6565b92915050565b600080604083850312156121f7576121f6611e08565b5b600061220585828601612174565b925050602061221685828601611fd1565b9150509250929050565b600060ff82169050919050565b61223681612220565b82525050565b6000602082019050612251600083018461222d565b92915050565b60006020828403121561226d5761226c611e08565b5b600061227b84828501611fd1565b91505092915050565b600080fd5b600080fd5b7f4e487b7100000000000000000000000000000000000000000000000000000000600052604160045260246000fd5b6122c682611f1c565b810181811067ffffffffffffffff821117156122e5576122e461228e565b5b80604052505050565b60006122f8611dfe565b905061230482826122bd565b919050565b600067ffffffffffffffff8211156123245761232361228e565b5b61232d82611f1c565b9050602081019050919050565b82818337600083830152505050565b600061235c61235784612309565b6122ee565b90508281526020810184848401111561237857612377612289565b5b61238384828561233a565b509392505050565b600082601f8301126123a05761239f612284565b5b81356123b0848260208601612349565b91505092915050565b600080604083850312156123d0576123cf611e08565b5b60006123de85828601611fd1565b925050602083013567ffffffffffffffff8111156123ff576123fe611e0d565b5b61240b8582860161238b565b9150509250929050565b600061242082612088565b9050919050565b61243081612415565b82525050565b600060208201905061244b6000830184612427565b92915050565b6000806040838503121561246857612467611e08565b5b600061247685828601611fd1565b925050602061248785828601611fd1565b9150509250929050565b6000602082840312156124a7576124a6611e08565b5b60006124b584828501612007565b91505092915050565b7f4e487b7100000000000000000000000000000000000000000000000000000000600052602260045260246000fd5b6000600282049050600182168061250557607f821691505b60208210811415612519576125186124be565b5b50919050565b7f416363657373436f6e74726f6c3a2063616e206f6e6c792072656e6f756e636560008201527f20726f6c657320666f722073656c660000000000000000000000000000000000602082015250565b600061257b602f83611ed8565b91506125868261251f565b604082019050919050565b600060208201905081810360008301526125aa8161256e565b9050919050565b7f4e487b7100000000000000000000000000000000000000000000000000000000600052601160045260246000fd5b60006125eb82611fe6565b91506125f683611fe6565b9250827fffffffffffffffffffffffffffffffffffffffffffffffffffffffffffffffff0382111561262b5761262a6125b1565b5b828201905092915050565b61263f81611fa8565b82525050565b600060608201905061265a6000830186612636565b6126676020830185612636565b61267460408301846120d6565b949350505050565b60008151905061268b81611ff0565b92915050565b6000602082840312156126a7576126a6611e08565b5b60006126b58482850161267c565b91505092915050565b7f45524332303a2064656372656173656420616c6c6f77616e63652062656c6f7760008201527f207a65726f000000000000000000000000000000000000000000000000000000602082015250565b600061271a602583611ed8565b9150612725826126be565b604082019050919050565b600060208201905081810360008301526127498161270d565b9050919050565b7f416d6f756e742073686f756c6420626520626967676572207468616e20300000600082015250565b6000612786601e83611ed8565b915061279182612750565b602082019050919050565b600060208201905081810360008301526127b581612779565b9050919050565b7f45524332303a20617070726f76652066726f6d20746865207a65726f2061646460008201527f7265737300000000000000000000000000000000000000000000000000000000602082015250565b6000612818602483611ed8565b9150612823826127bc565b604082019050919050565b600060208201905081810360008301526128478161280b565b9050919050565b7f45524332303a20617070726f766520746f20746865207a65726f20616464726560008201527f7373000000000000000000000000000000000000000000000000000000000000602082015250565b60006128aa602283611ed8565b91506128b58261284e565b604082019050919050565b600060208201905081810360008301526128d98161289d565b9050919050565b7f45524332303a20696e73756666696369656e7420616c6c6f77616e6365000000600082015250565b6000612916601d83611ed8565b9150612921826128e0565b602082019050919050565b6000602082019050818103600083015261294581612909565b9050919050565b7f45524332303a207472616e736665722066726f6d20746865207a65726f20616460008201527f6472657373000000000000000000000000000000000000000000000000000000602082015250565b60006129a8602583611ed8565b91506129b38261294c565b604082019050919050565b600060208201905081810360008301526129d78161299b565b9050919050565b7f45524332303a207472616e7366657220746f20746865207a65726f206164647260008201527f6573730000000000000000000000000000000000000000000000000000000000602082015250565b6000612a3a602383611ed8565b9150612a45826129de565b604082019050919050565b60006020820190508181036000830152612a6981612a2d565b9050919050565b7f45524332303a207472616e7366657220616d6f756e742065786365656473206260008201527f616c616e63650000000000000000000000000000000000000000000000000000602082015250565b6000612acc602683611ed8565b9150612ad782612a70565b604082019050919050565b60006020820190508181036000830152612afb81612abf565b9050919050565b600081905092915050565b7f416363657373436f6e74726f6c3a206163636f756e7420000000000000000000600082015250565b6000612b43601783612b02565b9150612b4e82612b0d565b601782019050919050565b6000612b6482611ecd565b612b6e8185612b02565b9350612b7e818560208601611ee9565b80840191505092915050565b7f206973206d697373696e6720726f6c6520000000000000000000000000000000600082015250565b6000612bc0601183612b02565b9150612bcb82612b8a565b601182019050919050565b6000612be182612b36565b9150612bed8285612b59565b9150612bf882612bb3565b9150612c048284612b59565b91508190509392505050565b7f45524332303a206275726e2066726f6d20746865207a65726f2061646472657360008201527f7300000000000000000000000000000000000000000000000000000000000000602082015250565b6000612c6c602183611ed8565b9150612c7782612c10565b604082019050919050565b60006020820190508181036000830152612c9b81612c5f565b9050919050565b7f45524332303a206275726e20616d6f756e7420657863656564732062616c616e60008201527f6365000000000000000000000000000000000000000000000000000000000000602082015250565b6000612cfe602283611ed8565b9150612d0982612ca2565b604082019050919050565b60006020820190508181036000830152612d2d81612cf1565b9050919050565b6000612d3f82611fe6565b9150612d4a83611fe6565b925082821015612d5d57612d5c6125b1565b5b828203905092915050565b6000604082019050612d7d6000830185612636565b612d8a60208301846120d6565b9392505050565b7f45524332303a206d696e7420746f20746865207a65726f206164647265737300600082015250565b6000612dc7601f83611ed8565b9150612dd282612d91565b602082019050919050565b60006020820190508181036000830152612df681612dba565b9050919050565b6000612e0882611fe6565b9150612e1383611fe6565b9250817fffffffffffffffffffffffffffffffffffffffffffffffffffffffffffffffff0483118215151615612e4c57612e4b6125b1565b5b828202905092915050565b7f4e487b7100000000000000000000000000000000000000000000000000000000600052603260045260246000fd5b6000612e9182611fe6565b91506000821415612ea557612ea46125b1565b5b600182039050919050565b7f537472696e67733a20686578206c656e67746820696e73756666696369656e74600082015250565b6000612ee6602083611ed8565b9150612ef182612eb0565b602082019050919050565b60006020820190508181036000830152612f1581612ed9565b9050919050565b612f2581611e97565b8114612f3057600080fd5b50565b600081519050612f4281612f1c565b92915050565b600060208284031215612f5e57612f5d611e08565b5b6000612f6c84828501612f33565b91505092915050565b7f5361666545524332303a204552433230206f7065726174696f6e20646964206e60008201527f6f74207375636365656400000000000000000000000000000000000000000000602082015250565b6000612fd1602a83611ed8565b9150612fdc82612f75565b604082019050919050565b6000602082019050818103600083015261300081612fc4565b9050919050565b7f416464726573733a20696e73756666696369656e742062616c616e636520666f60008201527f722063616c6c0000000000000000000000000000000000000000000000000000602082015250565b6000613063602683611ed8565b915061306e82613007565b604082019050919050565b6000602082019050818103600083015261309281613056565b9050919050565b7f416464726573733a2063616c6c20746f206e6f6e2d636f6e7472616374000000600082015250565b60006130cf601d83611ed8565b91506130da82613099565b602082019050919050565b600060208201905081810360008301526130fe816130c2565b9050919050565b600081519050919050565b600081905092915050565b600061312682613105565b6131308185613110565b9350613140818560208601611ee9565b80840191505092915050565b6000613158828461311b565b91508190509291505056fea2646970667358221220b0228a5d2c3fe8b45959282bb0673c12c4082be633187867ed6752d5fdea71c364736f6c634300080b003360806040523480156200001157600080fd5b506040518060400160405280600a81526020017f417474656e64616e6365000000000000000000000000000000000000000000008152506040518060400160405280600381526020017f4154430000000000000000000000000000000000000000000000000000000000815250816000908051906020019062000096929190620000b8565b508060019080519060200190620000af929190620000b8565b505050620001cd565b828054620000c69062000197565b90600052602060002090601f016020900481019282620000ea576000855562000136565b82601f106200010557805160ff191683800117855562000136565b8280016001018555821562000136579182015b828111156200013557825182559160200191906001019062000118565b5b50905062000145919062000149565b5090565b5b80821115620001645760008160009055506001016200014a565b5090565b7f4e487b7100000000000000000000000000000000000000000000000000000000600052602260045260246000fd5b60006002820490506001821680620001b057607f821691505b60208210811415620001c757620001c662000168565b5b50919050565b6136a780620001dd6000396000f3fe608060405234801561001057600080fd5b50600436106101375760003560e01c8063672756ad116100b8578063a22cb4651161007c578063a22cb4651461034c578063b88d4fde14610368578063c87b56dd14610384578063d547741f146103b4578063e8e8cb42146103d0578063e985e9c51461040057610137565b8063672756ad146102a657806370a08231146102b057806391d14854146102e057806395d89b4114610310578063a217fddf1461032e57610137565b8063248a9ca3116100ff578063248a9ca3146101f25780632f2ff15d1461022257806336568abe1461023e57806342842e0e1461025a5780636352211e1461027657610137565b806301ffc9a71461013c57806306fdde031461016c578063081812fc1461018a578063095ea7b3146101ba57806323b872dd146101d6575b600080fd5b610156600480360381019061015191906120fb565b610430565b6040516101639190612143565b60405180910390f35b610174610442565b60405161018191906121f7565b60405180910390f35b6101a4600480360381019061019f919061224f565b6104d4565b6040516101b191906122bd565b60405180910390f35b6101d460048036038101906101cf9190612304565b610559565b005b6101f060048036038101906101eb9190612344565b610671565b005b61020c600480360381019061020791906123cd565b6106d1565b6040516102199190612409565b60405180910390f35b61023c60048036038101906102379190612424565b6106f1565b005b61025860048036038101906102539190612424565b61071a565b005b610274600480360381019061026f9190612344565b61079d565b005b610290600480360381019061028b919061224f565b6107bd565b60405161029d91906122bd565b60405180910390f35b6102ae61086f565b005b6102ca60048036038101906102c59190612464565b61088f565b6040516102d791906124a0565b60405180910390f35b6102fa60048036038101906102f59190612424565b610947565b6040516103079190612143565b60405180910390f35b6103186109b2565b60405161032591906121f7565b60405180910390f35b610336610a44565b6040516103439190612409565b60405180910390f35b610366600480360381019061036191906124e7565b610a4b565b005b610382600480360381019061037d919061265c565b610a61565b005b61039e6004803603810190610399919061224f565b610ac3565b6040516103ab91906121f7565b60405180910390f35b6103ce60048036038101906103c99190612424565b610c15565b005b6103ea60048036038101906103e59190612780565b610c3e565b6040516103f791906124a0565b60405180910390f35b61041a600480360381019061041591906127c9565b610c75565b6040516104279190612143565b60405180910390f35b600061043b82610d09565b9050919050565b60606000805461045190612838565b80601f016020809104026020016040519081016040528092919081815260200182805461047d90612838565b80156104ca5780601f1061049f576101008083540402835291602001916104ca565b820191906000526020600020905b8154815290600101906020018083116104ad57829003601f168201915b5050505050905090565b60006104df82610d83565b61051e576040517f08c379a0000000000000000000000000000000000000000000000000000000008152600401610515906128dc565b60405180910390fd5b6004600083815260200190815260200160002060009054906101000a900473ffffffffffffffffffffffffffffffffffffffff169050919050565b6000610564826107bd565b90508073ffffffffffffffffffffffffffffffffffffffff168373ffffffffffffffffffffffffffffffffffffffff1614156105d5576040517f08c379a00000000000000000000000000000000000000000000000000000000081526004016105cc9061296e565b60405180910390fd5b8073ffffffffffffffffffffffffffffffffffffffff166105f4610def565b73ffffffffffffffffffffffffffffffffffffffff16148061062357506106228161061d610def565b610c75565b5b610662576040517f08c379a000000000000000000000000000000000000000000000000000000000815260040161065990612a00565b60405180910390fd5b61066c8383610df7565b505050565b61068261067c610def565b82610eb0565b6106c1576040517f08c379a00000000000000000000000000000000000000000000000000000000081526004016106b890612a92565b60405180910390fd5b6106cc838383610f8e565b505050565b600060076000838152602001908152602001600020600101549050919050565b6106fa826106d1565b61070b81610706610def565b6111f5565b6107158383611292565b505050565b610722610def565b73ffffffffffffffffffffffffffffffffffffffff168173ffffffffffffffffffffffffffffffffffffffff161461078f576040517f08c379a000000000000000000000000000000000000000000000000000000000815260040161078690612b24565b60405180910390fd5b6107998282611373565b5050565b6107b883838360405180602001604052806000815250610a61565b505050565b6000806002600084815260200190815260200160002060009054906101000a900473ffffffffffffffffffffffffffffffffffffffff169050600073ffffffffffffffffffffffffffffffffffffffff168173ffffffffffffffffffffffffffffffffffffffff161415610866576040517f08c379a000000000000000000000000000000000000000000000000000000000815260040161085d90612bb6565b60405180910390fd5b80915050919050565b6108796009611455565b61088d3033610888600961146b565b61079d565b565b60008073ffffffffffffffffffffffffffffffffffffffff168273ffffffffffffffffffffffffffffffffffffffff161415610900576040517f08c379a00000000000000000000000000000000000000000000000000000000081526004016108f790612c48565b60405180910390fd5b600360008373ffffffffffffffffffffffffffffffffffffffff1673ffffffffffffffffffffffffffffffffffffffff168152602001908152602001600020549050919050565b60006007600084815260200190815260200160002060000160008373ffffffffffffffffffffffffffffffffffffffff1673ffffffffffffffffffffffffffffffffffffffff16815260200190815260200160002060009054906101000a900460ff16905092915050565b6060600180546109c190612838565b80601f01602080910402602001604051908101604052809291908181526020018280546109ed90612838565b8015610a3a5780601f10610a0f57610100808354040283529160200191610a3a565b820191906000526020600020905b815481529060010190602001808311610a1d57829003601f168201915b5050505050905090565b6000801b81565b610a5d610a56610def565b8383611479565b5050565b610a72610a6c610def565b83610eb0565b610ab1576040517f08c379a0000000000000000000000000000000000000000000000000000000008152600401610aa890612a92565b60405180910390fd5b610abd848484846115e6565b50505050565b6060610ace82610d83565b610b0d576040517f08c379a0000000000000000000000000000000000000000000000000000000008152600401610b0490612cda565b60405180910390fd5b6000600660008481526020019081526020016000208054610b2d90612838565b80601f0160208091040260200160405190810160405280929190818152602001828054610b5990612838565b8015610ba65780601f10610b7b57610100808354040283529160200191610ba6565b820191906000526020600020905b815481529060010190602001808311610b8957829003601f168201915b505050505090506000610bb7611642565b9050600081511415610bcd578192505050610c10565b600082511115610c02578082604051602001610bea929190612d36565b60405160208183030381529060405292505050610c10565b610c0b84611659565b925050505b919050565b610c1e826106d1565b610c2f81610c2a610def565b6111f5565b610c398383611373565b505050565b6000610c4a6008611455565b6000610c56600861146b565b9050610c623382611700565b610c6c81846118da565b80915050919050565b6000600560008473ffffffffffffffffffffffffffffffffffffffff1673ffffffffffffffffffffffffffffffffffffffff16815260200190815260200160002060008373ffffffffffffffffffffffffffffffffffffffff1673ffffffffffffffffffffffffffffffffffffffff16815260200190815260200160002060009054906101000a900460ff16905092915050565b60007f7965db0b000000000000000000000000000000000000000000000000000000007bffffffffffffffffffffffffffffffffffffffffffffffffffffffff1916827bffffffffffffffffffffffffffffffffffffffffffffffffffffffff19161480610d7c5750610d7b8261194e565b5b9050919050565b60008073ffffffffffffffffffffffffffffffffffffffff166002600084815260200190815260200160002060009054906101000a900473ffffffffffffffffffffffffffffffffffffffff1673ffffffffffffffffffffffffffffffffffffffff1614159050919050565b600033905090565b816004600083815260200190815260200160002060006101000a81548173ffffffffffffffffffffffffffffffffffffffff021916908373ffffffffffffffffffffffffffffffffffffffff160217905550808273ffffffffffffffffffffffffffffffffffffffff16610e6a836107bd565b73ffffffffffffffffffffffffffffffffffffffff167f8c5be1e5ebec7d5bd14f71427d1e84f3dd0314c0f7b2291e5b200ac8c7c3b92560405160405180910390a45050565b6000610ebb82610d83565b610efa576040517f08c379a0000000000000000000000000000000000000000000000000000000008152600401610ef190612dcc565b60405180910390fd5b6000610f05836107bd565b90508073ffffffffffffffffffffffffffffffffffffffff168473ffffffffffffffffffffffffffffffffffffffff161480610f7457508373ffffffffffffffffffffffffffffffffffffffff16610f5c846104d4565b73ffffffffffffffffffffffffffffffffffffffff16145b80610f855750610f848185610c75565b5b91505092915050565b8273ffffffffffffffffffffffffffffffffffffffff16610fae826107bd565b73ffffffffffffffffffffffffffffffffffffffff1614611004576040517f08c379a0000000000000000000000000000000000000000000000000000000008152600401610ffb90612e5e565b60405180910390fd5b600073ffffffffffffffffffffffffffffffffffffffff168273ffffffffffffffffffffffffffffffffffffffff161415611074576040517f08c379a000000000000000000000000000000000000000000000000000000000815260040161106b90612ef0565b60405180910390fd5b61107f838383611a30565b61108a600082610df7565b6001600360008573ffffffffffffffffffffffffffffffffffffffff1673ffffffffffffffffffffffffffffffffffffffff16815260200190815260200160002060008282546110da9190612f3f565b925050819055506001600360008473ffffffffffffffffffffffffffffffffffffffff1673ffffffffffffffffffffffffffffffffffffffff16815260200190815260200160002060008282546111319190612f73565b92505081905550816002600083815260200190815260200160002060006101000a81548173ffffffffffffffffffffffffffffffffffffffff021916908373ffffffffffffffffffffffffffffffffffffffff160217905550808273ffffffffffffffffffffffffffffffffffffffff168473ffffffffffffffffffffffffffffffffffffffff167fddf252ad1be2c89b69c2b068fc378daa952ba7f163c4a11628f55a4df523b3ef60405160405180910390a46111f0838383611a35565b505050565b6111ff8282610947565b61128e576112248173ffffffffffffffffffffffffffffffffffffffff166014611a3a565b6112328360001c6020611a3a565b604051602001611243929190613061565b6040516020818303038152906040526040517f08c379a000000000000000000000000000000000000000000000000000000000815260040161128591906121f7565b60405180910390fd5b5050565b61129c8282610947565b61136f5760016007600084815260200190815260200160002060000160008373ffffffffffffffffffffffffffffffffffffffff1673ffffffffffffffffffffffffffffffffffffffff16815260200190815260200160002060006101000a81548160ff021916908315150217905550611314610def565b73ffffffffffffffffffffffffffffffffffffffff168173ffffffffffffffffffffffffffffffffffffffff16837f2f8788117e7eff1d82e926ec794901d17c78024a50270940304540a733656f0d60405160405180910390a45b5050565b61137d8282610947565b156114515760006007600084815260200190815260200160002060000160008373ffffffffffffffffffffffffffffffffffffffff1673ffffffffffffffffffffffffffffffffffffffff16815260200190815260200160002060006101000a81548160ff0219169083151502179055506113f6610def565b73ffffffffffffffffffffffffffffffffffffffff168173ffffffffffffffffffffffffffffffffffffffff16837ff6391f5c32d9c69d2a47ea670b442974b53935d1edc7fd64eb21e047a839171b60405160405180910390a45b5050565b6001816000016000828254019250508190555050565b600081600001549050919050565b8173ffffffffffffffffffffffffffffffffffffffff168373ffffffffffffffffffffffffffffffffffffffff1614156114e8576040517f08c379a00000000000000000000000000000000000000000000000000000000081526004016114df906130e7565b60405180910390fd5b80600560008573ffffffffffffffffffffffffffffffffffffffff1673ffffffffffffffffffffffffffffffffffffffff16815260200190815260200160002060008473ffffffffffffffffffffffffffffffffffffffff1673ffffffffffffffffffffffffffffffffffffffff16815260200190815260200160002060006101000a81548160ff0219169083151502179055508173ffffffffffffffffffffffffffffffffffffffff168373ffffffffffffffffffffffffffffffffffffffff167f17307eab39ab6107e8899845ad3d59bd9653f200f220920489ca2b5937696c31836040516115d99190612143565b60405180910390a3505050565b6115f1848484610f8e565b6115fd84848484611c76565b61163c576040517f08c379a000000000000000000000000000000000000000000000000000000000815260040161163390613179565b60405180910390fd5b50505050565b606060405180602001604052806000815250905090565b606061166482610d83565b6116a3576040517f08c379a000000000000000000000000000000000000000000000000000000000815260040161169a9061320b565b60405180910390fd5b60006116ad611642565b905060008151116116cd57604051806020016040528060008152506116f8565b806116d784611dfe565b6040516020016116e8929190612d36565b6040516020818303038152906040525b915050919050565b600073ffffffffffffffffffffffffffffffffffffffff168273ffffffffffffffffffffffffffffffffffffffff161415611770576040517f08c379a000000000000000000000000000000000000000000000000000000000815260040161176790613277565b60405180910390fd5b61177981610d83565b156117b9576040517f08c379a00000000000000000000000000000000000000000000000000000000081526004016117b0906132e3565b60405180910390fd5b6117c560008383611a30565b6001600360008473ffffffffffffffffffffffffffffffffffffffff1673ffffffffffffffffffffffffffffffffffffffff16815260200190815260200160002060008282546118159190612f73565b92505081905550816002600083815260200190815260200160002060006101000a81548173ffffffffffffffffffffffffffffffffffffffff021916908373ffffffffffffffffffffffffffffffffffffffff160217905550808273ffffffffffffffffffffffffffffffffffffffff16600073ffffffffffffffffffffffffffffffffffffffff167fddf252ad1be2c89b69c2b068fc378daa952ba7f163c4a11628f55a4df523b3ef60405160405180910390a46118d660008383611a35565b5050565b6118e382610d83565b611922576040517f08c379a000000000000000000000000000000000000000000000000000000000815260040161191990613375565b60405180910390fd5b80600660008481526020019081526020016000209080519060200190611949929190611fec565b505050565b60007f80ac58cd000000000000000000000000000000000000000000000000000000007bffffffffffffffffffffffffffffffffffffffffffffffffffffffff1916827bffffffffffffffffffffffffffffffffffffffffffffffffffffffff19161480611a1957507f5b5e139f000000000000000000000000000000000000000000000000000000007bffffffffffffffffffffffffffffffffffffffffffffffffffffffff1916827bffffffffffffffffffffffffffffffffffffffffffffffffffffffff1916145b80611a295750611a2882611f5f565b5b9050919050565b505050565b505050565b606060006002836002611a4d9190613395565b611a579190612f73565b67ffffffffffffffff811115611a7057611a6f612531565b5b6040519080825280601f01601f191660200182016040528015611aa25781602001600182028036833780820191505090505b5090507f300000000000000000000000000000000000000000000000000000000000000081600081518110611ada57611ad96133ef565b5b60200101907effffffffffffffffffffffffffffffffffffffffffffffffffffffffffffff1916908160001a9053507f780000000000000000000000000000000000000000000000000000000000000081600181518110611b3e57611b3d6133ef565b5b60200101907effffffffffffffffffffffffffffffffffffffffffffffffffffffffffffff1916908160001a90535060006001846002611b7e9190613395565b611b889190612f73565b90505b6001811115611c28577f3031323334353637383961626364656600000000000000000000000000000000600f861660108110611bca57611bc96133ef565b5b1a60f81b828281518110611be157611be06133ef565b5b60200101907effffffffffffffffffffffffffffffffffffffffffffffffffffffffffffff1916908160001a905350600485901c945080611c219061341e565b9050611b8b565b5060008414611c6c576040517f08c379a0000000000000000000000000000000000000000000000000000000008152600401611c6390613494565b60405180910390fd5b8091505092915050565b6000611c978473ffffffffffffffffffffffffffffffffffffffff16611fc9565b15611df1578373ffffffffffffffffffffffffffffffffffffffff1663150b7a02611cc0610def565b8786866040518563ffffffff1660e01b8152600401611ce29493929190613509565b6020604051808303816000875af1925050508015611d1e57506040513d601f19601f82011682018060405250810190611d1b919061356a565b60015b611da1573d8060008114611d4e576040519150601f19603f3d011682016040523d82523d6000602084013e611d53565b606091505b50600081511415611d99576040517f08c379a0000000000000000000000000000000000000000000000000000000008152600401611d9090613179565b60405180910390fd5b805181602001fd5b63150b7a0260e01b7bffffffffffffffffffffffffffffffffffffffffffffffffffffffff1916817bffffffffffffffffffffffffffffffffffffffffffffffffffffffff191614915050611df6565b600190505b949350505050565b60606000821415611e46576040518060400160405280600181526020017f30000000000000000000000000000000000000000000000000000000000000008152509050611f5a565b600082905060005b60008214611e78578080611e6190613597565b915050600a82611e71919061360f565b9150611e4e565b60008167ffffffffffffffff811115611e9457611e93612531565b5b6040519080825280601f01601f191660200182016040528015611ec65781602001600182028036833780820191505090505b5090505b60008514611f5357600182611edf9190612f3f565b9150600a85611eee9190613640565b6030611efa9190612f73565b60f81b818381518110611f1057611f0f6133ef565b5b60200101907effffffffffffffffffffffffffffffffffffffffffffffffffffffffffffff1916908160001a905350600a85611f4c919061360f565b9450611eca565b8093505050505b919050565b60007f01ffc9a7000000000000000000000000000000000000000000000000000000007bffffffffffffffffffffffffffffffffffffffffffffffffffffffff1916827bffffffffffffffffffffffffffffffffffffffffffffffffffffffff1916149050919050565b6000808273ffffffffffffffffffffffffffffffffffffffff163b119050919050565b828054611ff890612838565b90600052602060002090601f01602090048101928261201a5760008555612061565b82601f1061203357805160ff1916838001178555612061565b82800160010185558215612061579182015b82811115612060578251825591602001919060010190612045565b5b50905061206e9190612072565b5090565b5b8082111561208b576000816000905550600101612073565b5090565b6000604051905090565b600080fd5b600080fd5b60007fffffffff0000000000000000000000000000000000000000000000000000000082169050919050565b6120d8816120a3565b81146120e357600080fd5b50565b6000813590506120f5816120cf565b92915050565b60006020828403121561211157612110612099565b5b600061211f848285016120e6565b91505092915050565b60008115159050919050565b61213d81612128565b82525050565b60006020820190506121586000830184612134565b92915050565b600081519050919050565b600082825260208201905092915050565b60005b8381101561219857808201518184015260208101905061217d565b838111156121a7576000848401525b50505050565b6000601f19601f8301169050919050565b60006121c98261215e565b6121d38185612169565b93506121e381856020860161217a565b6121ec816121ad565b840191505092915050565b6000602082019050818103600083015261221181846121be565b905092915050565b6000819050919050565b61222c81612219565b811461223757600080fd5b50565b60008135905061224981612223565b92915050565b60006020828403121561226557612264612099565b5b60006122738482850161223a565b91505092915050565b600073ffffffffffffffffffffffffffffffffffffffff82169050919050565b60006122a78261227c565b9050919050565b6122b78161229c565b82525050565b60006020820190506122d260008301846122ae565b92915050565b6122e18161229c565b81146122ec57600080fd5b50565b6000813590506122fe816122d8565b92915050565b6000806040838503121561231b5761231a612099565b5b6000612329858286016122ef565b925050602061233a8582860161223a565b9150509250929050565b60008060006060848603121561235d5761235c612099565b5b600061236b868287016122ef565b935050602061237c868287016122ef565b925050604061238d8682870161223a565b9150509250925092565b6000819050919050565b6123aa81612397565b81146123b557600080fd5b50565b6000813590506123c7816123a1565b92915050565b6000602082840312156123e3576123e2612099565b5b60006123f1848285016123b8565b91505092915050565b61240381612397565b82525050565b600060208201905061241e60008301846123fa565b92915050565b6000806040838503121561243b5761243a612099565b5b6000612449858286016123b8565b925050602061245a858286016122ef565b9150509250929050565b60006020828403121561247a57612479612099565b5b6000612488848285016122ef565b91505092915050565b61249a81612219565b82525050565b60006020820190506124b56000830184612491565b92915050565b6124c481612128565b81146124cf57600080fd5b50565b6000813590506124e1816124bb565b92915050565b600080604083850312156124fe576124fd612099565b5b600061250c858286016122ef565b925050602061251d858286016124d2565b9150509250929050565b600080fd5b600080fd5b7f4e487b7100000000000000000000000000000000000000000000000000000000600052604160045260246000fd5b612569826121ad565b810181811067ffffffffffffffff8211171561258857612587612531565b5b80604052505050565b600061259b61208f565b90506125a78282612560565b919050565b600067ffffffffffffffff8211156125c7576125c6612531565b5b6125d0826121ad565b9050602081019050919050565b82818337600083830152505050565b60006125ff6125fa846125ac565b612591565b90508281526020810184848401111561261b5761261a61252c565b5b6126268482856125dd565b509392505050565b600082601f83011261264357612642612527565b5b81356126538482602086016125ec565b91505092915050565b6000806000806080858703121561267657612675612099565b5b6000612684878288016122ef565b9450506020612695878288016122ef565b93505060406126a68782880161223a565b925050606085013567ffffffffffffffff8111156126c7576126c661209e565b5b6126d38782880161262e565b91505092959194509250565b600067ffffffffffffffff8211156126fa576126f9612531565b5b612703826121ad565b9050602081019050919050565b600061272361271e846126df565b612591565b90508281526020810184848401111561273f5761273e61252c565b5b61274a8482856125dd565b509392505050565b600082601f83011261276757612766612527565b5b8135612777848260208601612710565b91505092915050565b60006020828403121561279657612795612099565b5b600082013567ffffffffffffffff8111156127b4576127b361209e565b5b6127c084828501612752565b91505092915050565b600080604083850312156127e0576127df612099565b5b60006127ee858286016122ef565b92505060206127ff858286016122ef565b9150509250929050565b7f4e487b7100000000000000000000000000000000000000000000000000000000600052602260045260246000fd5b6000600282049050600182168061285057607f821691505b6020821081141561286457612863612809565b5b50919050565b7f4552433732313a20617070726f76656420717565727920666f72206e6f6e657860008201527f697374656e7420746f6b656e0000000000000000000000000000000000000000602082015250565b60006128c6602c83612169565b91506128d18261286a565b604082019050919050565b600060208201905081810360008301526128f5816128b9565b9050919050565b7f4552433732313a20617070726f76616c20746f2063757272656e74206f776e6560008201527f7200000000000000000000000000000000000000000000000000000000000000602082015250565b6000612958602183612169565b9150612963826128fc565b604082019050919050565b600060208201905081810360008301526129878161294b565b9050919050565b7f4552433732313a20617070726f76652063616c6c6572206973206e6f74206f7760008201527f6e6572206e6f7220617070726f76656420666f7220616c6c0000000000000000602082015250565b60006129ea603883612169565b91506129f58261298e565b604082019050919050565b60006020820190508181036000830152612a19816129dd565b9050919050565b7f4552433732313a207472616e736665722063616c6c6572206973206e6f74206f60008201527f776e6572206e6f7220617070726f766564000000000000000000000000000000602082015250565b6000612a7c603183612169565b9150612a8782612a20565b604082019050919050565b60006020820190508181036000830152612aab81612a6f565b9050919050565b7f416363657373436f6e74726f6c3a2063616e206f6e6c792072656e6f756e636560008201527f20726f6c657320666f722073656c660000000000000000000000000000000000602082015250565b6000612b0e602f83612169565b9150612b1982612ab2565b604082019050919050565b60006020820190508181036000830152612b3d81612b01565b9050919050565b7f4552433732313a206f776e657220717565727920666f72206e6f6e657869737460008201527f656e7420746f6b656e0000000000000000000000000000000000000000000000602082015250565b6000612ba0602983612169565b9150612bab82612b44565b604082019050919050565b60006020820190508181036000830152612bcf81612b93565b9050919050565b7f4552433732313a2062616c616e636520717565727920666f7220746865207a6560008201527f726f206164647265737300000000000000000000000000000000000000000000602082015250565b6000612c32602a83612169565b9150612c3d82612bd6565b604082019050919050565b60006020820190508181036000830152612c6181612c25565b9050919050565b7f45524337323155524953746f726167653a2055524920717565727920666f722060008201527f6e6f6e6578697374656e7420746f6b656e000000000000000000000000000000602082015250565b6000612cc4603183612169565b9150612ccf82612c68565b604082019050919050565b60006020820190508181036000830152612cf381612cb7565b9050919050565b600081905092915050565b6000612d108261215e565b612d1a8185612cfa565b9350612d2a81856020860161217a565b80840191505092915050565b6000612d428285612d05565b9150612d4e8284612d05565b91508190509392505050565b7f4552433732313a206f70657261746f7220717565727920666f72206e6f6e657860008201527f697374656e7420746f6b656e0000000000000000000000000000000000000000602082015250565b6000612db6602c83612169565b9150612dc182612d5a565b604082019050919050565b60006020820190508181036000830152612de581612da9565b9050919050565b7f4552433732313a207472616e736665722066726f6d20696e636f72726563742060008201527f6f776e6572000000000000000000000000000000000000000000000000000000602082015250565b6000612e48602583612169565b9150612e5382612dec565b604082019050919050565b60006020820190508181036000830152612e7781612e3b565b9050919050565b7f4552433732313a207472616e7366657220746f20746865207a65726f2061646460008201527f7265737300000000000000000000000000000000000000000000000000000000602082015250565b6000612eda602483612169565b9150612ee582612e7e565b604082019050919050565b60006020820190508181036000830152612f0981612ecd565b9050919050565b7f4e487b7100000000000000000000000000000000000000000000000000000000600052601160045260246000fd5b6000612f4a82612219565b9150612f5583612219565b925082821015612f6857612f67612f10565b5b828203905092915050565b6000612f7e82612219565b9150612f8983612219565b9250827fffffffffffffffffffffffffffffffffffffffffffffffffffffffffffffffff03821115612fbe57612fbd612f10565b5b828201905092915050565b7f416363657373436f6e74726f6c3a206163636f756e7420000000000000000000600082015250565b6000612fff601783612cfa565b915061300a82612fc9565b601782019050919050565b7f206973206d697373696e6720726f6c6520000000000000000000000000000000600082015250565b600061304b601183612cfa565b915061305682613015565b601182019050919050565b600061306c82612ff2565b91506130788285612d05565b91506130838261303e565b915061308f8284612d05565b91508190509392505050565b7f4552433732313a20617070726f766520746f2063616c6c657200000000000000600082015250565b60006130d1601983612169565b91506130dc8261309b565b602082019050919050565b60006020820190508181036000830152613100816130c4565b9050919050565b7f4552433732313a207472616e7366657220746f206e6f6e20455243373231526560008201527f63656976657220696d706c656d656e7465720000000000000000000000000000602082015250565b6000613163603283612169565b915061316e82613107565b604082019050919050565b6000602082019050818103600083015261319281613156565b9050919050565b7f4552433732314d657461646174613a2055524920717565727920666f72206e6f60008201527f6e6578697374656e7420746f6b656e0000000000000000000000000000000000602082015250565b60006131f5602f83612169565b915061320082613199565b604082019050919050565b60006020820190508181036000830152613224816131e8565b9050919050565b7f4552433732313a206d696e7420746f20746865207a65726f2061646472657373600082015250565b6000613261602083612169565b915061326c8261322b565b602082019050919050565b6000602082019050818103600083015261329081613254565b9050919050565b7f4552433732313a20746f6b656e20616c7265616479206d696e74656400000000600082015250565b60006132cd601c83612169565b91506132d882613297565b602082019050919050565b600060208201905081810360008301526132fc816132c0565b9050919050565b7f45524337323155524953746f726167653a2055524920736574206f66206e6f6e60008201527f6578697374656e7420746f6b656e000000000000000000000000000000000000602082015250565b600061335f602e83612169565b915061336a82613303565b604082019050919050565b6000602082019050818103600083015261338e81613352565b9050919050565b60006133a082612219565b91506133ab83612219565b9250817fffffffffffffffffffffffffffffffffffffffffffffffffffffffffffffffff04831182151516156133e4576133e3612f10565b5b828202905092915050565b7f4e487b7100000000000000000000000000000000000000000000000000000000600052603260045260246000fd5b600061342982612219565b9150600082141561343d5761343c612f10565b5b600182039050919050565b7f537472696e67733a20686578206c656e67746820696e73756666696369656e74600082015250565b600061347e602083612169565b915061348982613448565b602082019050919050565b600060208201905081810360008301526134ad81613471565b9050919050565b600081519050919050565b600082825260208201905092915050565b60006134db826134b4565b6134e581856134bf565b93506134f581856020860161217a565b6134fe816121ad565b840191505092915050565b600060808201905061351e60008301876122ae565b61352b60208301866122ae565b6135386040830185612491565b818103606083015261354a81846134d0565b905095945050505050565b600081519050613564816120cf565b92915050565b6000602082840312156135805761357f612099565b5b600061358e84828501613555565b91505092915050565b60006135a282612219565b91507fffffffffffffffffffffffffffffffffffffffffffffffffffffffffffffffff8214156135d5576135d4612f10565b5b600182019050919050565b7f4e487b7100000000000000000000000000000000000000000000000000000000600052601260045260246000fd5b600061361a82612219565b915061362583612219565b925082613635576136346135e0565b5b828204905092915050565b600061364b82612219565b915061365683612219565b925082613666576136656135e0565b5b82820690509291505056fea26469706673582212202c61fec97ea526f41950eb844650e8b052998436f5c00db7f652b0ddc449c6ca64736f6c634300080b0033",
  "linkReferences": {},
  "deployedLinkReferences": {}
}