{
  "_format": "hh-sol-artifact-1",
  "contractName": "StudyCoin",
  "sourceName": "contracts/StudyCoin.sol",
  "abi": [
    {
      "inputs": [
        {
          "internalType": "address",
          "name": "_donationToken",
          "type": "address"
        }
      ],
      "stateMutability": "nonpayable",
      "type": "constructor"
    },
    {
      "anonymous": false,
      "inputs": [
        {
          "indexed": true,
          "internalType": "address",
          "name": "account",
          "type": "address"
        },
        {
          "indexed": true,
          "internalType": "address",
          "name": "operator",
          "type": "address"
        },
        {
          "indexed": false,
          "internalType": "bool",
          "name": "approved",
          "type": "bool"
        }
      ],
      "name": "ApprovalForAll",
      "type": "event"
    },
    {
      "anonymous": false,
      "inputs": [
        {
          "indexed": true,
          "internalType": "address",
          "name": "operator",
          "type": "address"
        },
        {
          "indexed": true,
          "internalType": "address",
          "name": "from",
          "type": "address"
        },
        {
          "indexed": true,
          "internalType": "address",
          "name": "to",
          "type": "address"
        },
        {
          "indexed": false,
          "internalType": "uint256[]",
          "name": "ids",
          "type": "uint256[]"
        },
        {
          "indexed": false,
          "internalType": "uint256[]",
          "name": "values",
          "type": "uint256[]"
        }
      ],
      "name": "TransferBatch",
      "type": "event"
    },
    {
      "anonymous": false,
      "inputs": [
        {
          "indexed": true,
          "internalType": "address",
          "name": "operator",
          "type": "address"
        },
        {
          "indexed": true,
          "internalType": "address",
          "name": "from",
          "type": "address"
        },
        {
          "indexed": true,
          "internalType": "address",
          "name": "to",
          "type": "address"
        },
        {
          "indexed": false,
          "internalType": "uint256",
          "name": "id",
          "type": "uint256"
        },
        {
          "indexed": false,
          "internalType": "uint256",
          "name": "value",
          "type": "uint256"
        }
      ],
      "name": "TransferSingle",
      "type": "event"
    },
    {
      "anonymous": false,
      "inputs": [
        {
          "indexed": false,
          "internalType": "string",
          "name": "value",
          "type": "string"
        },
        {
          "indexed": true,
          "internalType": "uint256",
          "name": "id",
          "type": "uint256"
        }
      ],
      "name": "URI",
      "type": "event"
    },
    {
      "inputs": [],
      "name": "STUDY_COIN",
      "outputs": [
        {
          "internalType": "uint256",
          "name": "",
          "type": "uint256"
        }
      ],
      "stateMutability": "view",
      "type": "function"
    },
    {
      "inputs": [
        {
          "internalType": "uint256",
          "name": "_amount",
          "type": "uint256"
        }
      ],
      "name": "addDonationPoolBalance",
      "outputs": [],
      "stateMutability": "nonpayable",
      "type": "function"
    },
    {
      "inputs": [
        {
          "internalType": "address",
          "name": "account",
          "type": "address"
        },
        {
          "internalType": "uint256",
          "name": "id",
          "type": "uint256"
        }
      ],
      "name": "balanceOf",
      "outputs": [
        {
          "internalType": "uint256",
          "name": "",
          "type": "uint256"
        }
      ],
      "stateMutability": "view",
      "type": "function"
    },
    {
      "inputs": [
        {
          "internalType": "address[]",
          "name": "accounts",
          "type": "address[]"
        },
        {
          "internalType": "uint256[]",
          "name": "ids",
          "type": "uint256[]"
        }
      ],
      "name": "balanceOfBatch",
      "outputs": [
        {
          "internalType": "uint256[]",
          "name": "",
          "type": "uint256[]"
        }
      ],
      "stateMutability": "view",
      "type": "function"
    },
    {
      "inputs": [],
      "name": "claimNFT",
      "outputs": [],
      "stateMutability": "nonpayable",
      "type": "function"
    },
    {
      "inputs": [
        {
          "internalType": "address",
          "name": "_student",
          "type": "address"
        },
        {
          "internalType": "bytes",
          "name": "tokenURI",
          "type": "bytes"
        }
      ],
      "name": "confirmAttendance",
      "outputs": [],
      "stateMutability": "nonpayable",
      "type": "function"
    },
    {
      "inputs": [],
      "name": "dailyAmount",
      "outputs": [
        {
          "internalType": "uint256",
          "name": "",
          "type": "uint256"
        }
      ],
      "stateMutability": "view",
      "type": "function"
    },
    {
      "inputs": [],
      "name": "donationToken",
      "outputs": [
        {
          "internalType": "contract IERC20",
          "name": "",
          "type": "address"
        }
      ],
      "stateMutability": "view",
      "type": "function"
    },
    {
      "inputs": [
        {
          "internalType": "address",
          "name": "account",
          "type": "address"
        },
        {
          "internalType": "address",
          "name": "operator",
          "type": "address"
        }
      ],
      "name": "isApprovedForAll",
      "outputs": [
        {
          "internalType": "bool",
          "name": "",
          "type": "bool"
        }
      ],
      "stateMutability": "view",
      "type": "function"
    },
    {
      "inputs": [
        {
          "internalType": "address",
          "name": "from",
          "type": "address"
        },
        {
          "internalType": "address",
          "name": "to",
          "type": "address"
        },
        {
          "internalType": "uint256[]",
          "name": "ids",
          "type": "uint256[]"
        },
        {
          "internalType": "uint256[]",
          "name": "amounts",
          "type": "uint256[]"
        },
        {
          "internalType": "bytes",
          "name": "data",
          "type": "bytes"
        }
      ],
      "name": "safeBatchTransferFrom",
      "outputs": [],
      "stateMutability": "nonpayable",
      "type": "function"
    },
    {
      "inputs": [
        {
          "internalType": "address",
          "name": "from",
          "type": "address"
        },
        {
          "internalType": "address",
          "name": "to",
          "type": "address"
        },
        {
          "internalType": "uint256",
          "name": "id",
          "type": "uint256"
        },
        {
          "internalType": "uint256",
          "name": "amount",
          "type": "uint256"
        },
        {
          "internalType": "bytes",
          "name": "data",
          "type": "bytes"
        }
      ],
      "name": "safeTransferFrom",
      "outputs": [],
      "stateMutability": "nonpayable",
      "type": "function"
    },
    {
      "inputs": [
        {
          "internalType": "address",
          "name": "operator",
          "type": "address"
        },
        {
          "internalType": "bool",
          "name": "approved",
          "type": "bool"
        }
      ],
      "name": "setApprovalForAll",
      "outputs": [],
      "stateMutability": "nonpayable",
      "type": "function"
    },
    {
      "inputs": [
        {
          "internalType": "bytes4",
          "name": "interfaceId",
          "type": "bytes4"
        }
      ],
      "name": "supportsInterface",
      "outputs": [
        {
          "internalType": "bool",
          "name": "",
          "type": "bool"
        }
      ],
      "stateMutability": "view",
      "type": "function"
    },
    {
      "inputs": [
        {
          "internalType": "uint256",
          "name": "",
          "type": "uint256"
        }
      ],
      "name": "uri",
      "outputs": [
        {
          "internalType": "string",
          "name": "",
          "type": "string"
        }
      ],
      "stateMutability": "view",
      "type": "function"
    }
  ],
  "bytecode": "0x60806040523480156200001157600080fd5b5060405162003767380380620037678339818101604052810190620000379190620001df565b604051806020016040528060008152506200005881620000a960201b60201c565b5080600360006101000a81548173ffffffffffffffffffffffffffffffffffffffff021916908373ffffffffffffffffffffffffffffffffffffffff16021790555060056006819055505062000276565b8060029080519060200190620000c1929190620000c5565b5050565b828054620000d39062000240565b90600052602060002090601f016020900481019282620000f7576000855562000143565b82601f106200011257805160ff191683800117855562000143565b8280016001018555821562000143579182015b828111156200014257825182559160200191906001019062000125565b5b50905062000152919062000156565b5090565b5b808211156200017157600081600090555060010162000157565b5090565b600080fd5b600073ffffffffffffffffffffffffffffffffffffffff82169050919050565b6000620001a7826200017a565b9050919050565b620001b9816200019a565b8114620001c557600080fd5b50565b600081519050620001d981620001ae565b92915050565b600060208284031215620001f857620001f762000175565b5b60006200020884828501620001c8565b91505092915050565b7f4e487b7100000000000000000000000000000000000000000000000000000000600052602260045260246000fd5b600060028204905060018216806200025957607f821691505b6020821081141562000270576200026f62000211565b5b50919050565b6134e180620002866000396000f3fe608060405234801561001057600080fd5b50600436106100e95760003560e01c8063672756ad1161008c578063deb6347611610066578063deb634761461024a578063e985e9c514610266578063f110679614610296578063f242432a146102b2576100e9565b8063672756ad14610206578063724296e714610210578063a22cb4651461022e576100e9565b80630e89341c116100c85780630e89341c1461016c5780632eb2c2d61461019c5780634e1273f4146101b857806359c1334b146101e8576100e9565b8062fdd58e146100ee57806301ffc9a71461011e5780630df721591461014e575b600080fd5b61010860048036038101906101039190611d58565b6102ce565b6040516101159190611da7565b60405180910390f35b61013860048036038101906101339190611e1a565b610397565b6040516101459190611e62565b60405180910390f35b610156610479565b6040516101639190611edc565b60405180910390f35b61018660048036038101906101819190611ef7565b61049f565b6040516101939190611fbd565b60405180910390f35b6101b660048036038101906101b191906121dc565b610533565b005b6101d260048036038101906101cd919061236e565b6105d4565b6040516101df91906124a4565b60405180910390f35b6101f06106ed565b6040516101fd9190611da7565b60405180910390f35b61020e6106f3565b005b610218610732565b6040516102259190611da7565b60405180910390f35b610248600480360381019061024391906124f2565b610737565b005b610264600480360381019061025f9190611ef7565b61074d565b005b610280600480360381019061027b9190612532565b6107fe565b60405161028d9190611e62565b60405180910390f35b6102b060048036038101906102ab9190612572565b610892565b005b6102cc60048036038101906102c791906125ce565b610905565b005b60008073ffffffffffffffffffffffffffffffffffffffff168373ffffffffffffffffffffffffffffffffffffffff16141561033f576040517f08c379a0000000000000000000000000000000000000000000000000000000008152600401610336906126d7565b60405180910390fd5b60008083815260200190815260200160002060008473ffffffffffffffffffffffffffffffffffffffff1673ffffffffffffffffffffffffffffffffffffffff16815260200190815260200160002054905092915050565b60007fd9b67a26000000000000000000000000000000000000000000000000000000007bffffffffffffffffffffffffffffffffffffffffffffffffffffffff1916827bffffffffffffffffffffffffffffffffffffffffffffffffffffffff1916148061046257507f0e89341c000000000000000000000000000000000000000000000000000000007bffffffffffffffffffffffffffffffffffffffffffffffffffffffff1916827bffffffffffffffffffffffffffffffffffffffffffffffffffffffff1916145b806104725750610471826109a6565b5b9050919050565b600360009054906101000a900473ffffffffffffffffffffffffffffffffffffffff1681565b6060600280546104ae90612726565b80601f01602080910402602001604051908101604052809291908181526020018280546104da90612726565b80156105275780601f106104fc57610100808354040283529160200191610527565b820191906000526020600020905b81548152906001019060200180831161050a57829003601f168201915b50505050509050919050565b61053b610a10565b73ffffffffffffffffffffffffffffffffffffffff168573ffffffffffffffffffffffffffffffffffffffff16148061058157506105808561057b610a10565b6107fe565b5b6105c0576040517f08c379a00000000000000000000000000000000000000000000000000000000081526004016105b7906127ca565b60405180910390fd5b6105cd8585858585610a18565b5050505050565b6060815183511461061a576040517f08c379a00000000000000000000000000000000000000000000000000000000081526004016106119061285c565b60405180910390fd5b6000835167ffffffffffffffff81111561063757610636611fe4565b5b6040519080825280602002602001820160405280156106655781602001602082028036833780820191505090505b50905060005b84518110156106e2576106b285828151811061068a5761068961287c565b5b60200260200101518583815181106106a5576106a461287c565b5b60200260200101516102ce565b8282815181106106c5576106c461287c565b5b602002602001018181525050806106db906128da565b905061066b565b508091505092915050565b60065481565b6107003360006001610d2c565b61070a6005610f49565b61073030336107196005610f5f565b600160405180602001604052806000815250610905565b565b600081565b610749610742610a10565b8383610f6d565b5050565b60008111610790576040517f08c379a00000000000000000000000000000000000000000000000000000000081526004016107879061296f565b60405180910390fd5b6107df333083600360009054906101000a900473ffffffffffffffffffffffffffffffffffffffff1673ffffffffffffffffffffffffffffffffffffffff166110da909392919063ffffffff16565b6107fb3360008360405180602001604052806000815250611163565b50565b6000600160008473ffffffffffffffffffffffffffffffffffffffff1673ffffffffffffffffffffffffffffffffffffffff16815260200190815260200160002060008373ffffffffffffffffffffffffffffffffffffffff1673ffffffffffffffffffffffffffffffffffffffff16815260200190815260200160002060009054906101000a900460ff16905092915050565b61089c6004610f49565b6108b2306108aa6004610f5f565b600184611163565b61090182600654600360009054906101000a900473ffffffffffffffffffffffffffffffffffffffff1673ffffffffffffffffffffffffffffffffffffffff166112f99092919063ffffffff16565b5050565b61090d610a10565b73ffffffffffffffffffffffffffffffffffffffff168573ffffffffffffffffffffffffffffffffffffffff16148061095357506109528561094d610a10565b6107fe565b5b610992576040517f08c379a000000000000000000000000000000000000000000000000000000000815260040161098990612a01565b60405180910390fd5b61099f858585858561137f565b5050505050565b60007f01ffc9a7000000000000000000000000000000000000000000000000000000007bffffffffffffffffffffffffffffffffffffffffffffffffffffffff1916827bffffffffffffffffffffffffffffffffffffffffffffffffffffffff1916149050919050565b600033905090565b8151835114610a5c576040517f08c379a0000000000000000000000000000000000000000000000000000000008152600401610a5390612a93565b60405180910390fd5b600073ffffffffffffffffffffffffffffffffffffffff168473ffffffffffffffffffffffffffffffffffffffff161415610acc576040517f08c379a0000000000000000000000000000000000000000000000000000000008152600401610ac390612b25565b60405180910390fd5b6000610ad6610a10565b9050610ae6818787878787611601565b60005b8451811015610c97576000858281518110610b0757610b0661287c565b5b602002602001015190506000858381518110610b2657610b2561287c565b5b60200260200101519050600080600084815260200190815260200160002060008b73ffffffffffffffffffffffffffffffffffffffff1673ffffffffffffffffffffffffffffffffffffffff16815260200190815260200160002054905081811015610bc7576040517f08c379a0000000000000000000000000000000000000000000000000000000008152600401610bbe90612bb7565b60405180910390fd5b81810360008085815260200190815260200160002060008c73ffffffffffffffffffffffffffffffffffffffff1673ffffffffffffffffffffffffffffffffffffffff168152602001908152602001600020819055508160008085815260200190815260200160002060008b73ffffffffffffffffffffffffffffffffffffffff1673ffffffffffffffffffffffffffffffffffffffff1681526020019081526020016000206000828254610c7c9190612bd7565b9250508190555050505080610c90906128da565b9050610ae9565b508473ffffffffffffffffffffffffffffffffffffffff168673ffffffffffffffffffffffffffffffffffffffff168273ffffffffffffffffffffffffffffffffffffffff167f4a39dc06d4c0dbc64b70af90fd698a233a518aa5d07e595d983b8c0526c8f7fb8787604051610d0e929190612c2d565b60405180910390a4610d24818787878787611609565b505050505050565b600073ffffffffffffffffffffffffffffffffffffffff168373ffffffffffffffffffffffffffffffffffffffff161415610d9c576040517f08c379a0000000000000000000000000000000000000000000000000000000008152600401610d9390612cd6565b60405180910390fd5b6000610da6610a10565b9050610dd681856000610db8876117e1565b610dc1876117e1565b60405180602001604052806000815250611601565b600080600085815260200190815260200160002060008673ffffffffffffffffffffffffffffffffffffffff1673ffffffffffffffffffffffffffffffffffffffff16815260200190815260200160002054905082811015610e6d576040517f08c379a0000000000000000000000000000000000000000000000000000000008152600401610e6490612d68565b60405180910390fd5b82810360008086815260200190815260200160002060008773ffffffffffffffffffffffffffffffffffffffff1673ffffffffffffffffffffffffffffffffffffffff16815260200190815260200160002081905550600073ffffffffffffffffffffffffffffffffffffffff168573ffffffffffffffffffffffffffffffffffffffff168373ffffffffffffffffffffffffffffffffffffffff167fc3d58168c5ae7397731d063d5bbf3d657854427343f4c083240f7aacaa2d0f628787604051610f3a929190612d88565b60405180910390a45050505050565b6001816000016000828254019250508190555050565b600081600001549050919050565b8173ffffffffffffffffffffffffffffffffffffffff168373ffffffffffffffffffffffffffffffffffffffff161415610fdc576040517f08c379a0000000000000000000000000000000000000000000000000000000008152600401610fd390612e23565b60405180910390fd5b80600160008573ffffffffffffffffffffffffffffffffffffffff1673ffffffffffffffffffffffffffffffffffffffff16815260200190815260200160002060008473ffffffffffffffffffffffffffffffffffffffff1673ffffffffffffffffffffffffffffffffffffffff16815260200190815260200160002060006101000a81548160ff0219169083151502179055508173ffffffffffffffffffffffffffffffffffffffff168373ffffffffffffffffffffffffffffffffffffffff167f17307eab39ab6107e8899845ad3d59bd9653f200f220920489ca2b5937696c31836040516110cd9190611e62565b60405180910390a3505050565b61115d846323b872dd60e01b8585856040516024016110fb93929190612e52565b604051602081830303815290604052907bffffffffffffffffffffffffffffffffffffffffffffffffffffffff19166020820180517bffffffffffffffffffffffffffffffffffffffffffffffffffffffff838183161783525050505061185b565b50505050565b600073ffffffffffffffffffffffffffffffffffffffff168473ffffffffffffffffffffffffffffffffffffffff1614156111d3576040517f08c379a00000000000000000000000000000000000000000000000000000000081526004016111ca90612efb565b60405180910390fd5b60006111dd610a10565b90506111fe816000876111ef886117e1565b6111f8886117e1565b87611601565b8260008086815260200190815260200160002060008773ffffffffffffffffffffffffffffffffffffffff1673ffffffffffffffffffffffffffffffffffffffff168152602001908152602001600020600082825461125d9190612bd7565b925050819055508473ffffffffffffffffffffffffffffffffffffffff16600073ffffffffffffffffffffffffffffffffffffffff168273ffffffffffffffffffffffffffffffffffffffff167fc3d58168c5ae7397731d063d5bbf3d657854427343f4c083240f7aacaa2d0f6287876040516112db929190612d88565b60405180910390a46112f281600087878787611922565b5050505050565b61137a8363a9059cbb60e01b8484604051602401611318929190612f1b565b604051602081830303815290604052907bffffffffffffffffffffffffffffffffffffffffffffffffffffffff19166020820180517bffffffffffffffffffffffffffffffffffffffffffffffffffffffff838183161783525050505061185b565b505050565b600073ffffffffffffffffffffffffffffffffffffffff168473ffffffffffffffffffffffffffffffffffffffff1614156113ef576040517f08c379a00000000000000000000000000000000000000000000000000000000081526004016113e690612b25565b60405180910390fd5b60006113f9610a10565b905061141981878761140a886117e1565b611413886117e1565b87611601565b600080600086815260200190815260200160002060008873ffffffffffffffffffffffffffffffffffffffff1673ffffffffffffffffffffffffffffffffffffffff168152602001908152602001600020549050838110156114b0576040517f08c379a00000000000000000000000000000000000000000000000000000000081526004016114a790612bb7565b60405180910390fd5b83810360008087815260200190815260200160002060008973ffffffffffffffffffffffffffffffffffffffff1673ffffffffffffffffffffffffffffffffffffffff168152602001908152602001600020819055508360008087815260200190815260200160002060008873ffffffffffffffffffffffffffffffffffffffff1673ffffffffffffffffffffffffffffffffffffffff16815260200190815260200160002060008282546115659190612bd7565b925050819055508573ffffffffffffffffffffffffffffffffffffffff168773ffffffffffffffffffffffffffffffffffffffff168373ffffffffffffffffffffffffffffffffffffffff167fc3d58168c5ae7397731d063d5bbf3d657854427343f4c083240f7aacaa2d0f6288886040516115e2929190612d88565b60405180910390a46115f8828888888888611922565b50505050505050565b505050505050565b6116288473ffffffffffffffffffffffffffffffffffffffff16611afa565b156117d9578373ffffffffffffffffffffffffffffffffffffffff1663bc197c8187878686866040518663ffffffff1660e01b815260040161166e959493929190612f99565b6020604051808303816000875af19250505080156116aa57506040513d601f19601f820116820180604052508101906116a79190613016565b60015b611750576116b6613050565b806308c379a0141561171357506116cb613072565b806116d65750611715565b806040517f08c379a000000000000000000000000000000000000000000000000000000000815260040161170a9190611fbd565b60405180910390fd5b505b6040517f08c379a00000000000000000000000000000000000000000000000000000000081526004016117479061317a565b60405180910390fd5b63bc197c8160e01b7bffffffffffffffffffffffffffffffffffffffffffffffffffffffff1916817bffffffffffffffffffffffffffffffffffffffffffffffffffffffff1916146117d7576040517f08c379a00000000000000000000000000000000000000000000000000000000081526004016117ce9061320c565b60405180910390fd5b505b505050505050565b60606000600167ffffffffffffffff811115611800576117ff611fe4565b5b60405190808252806020026020018201604052801561182e5781602001602082028036833780820191505090505b50905082816000815181106118465761184561287c565b5b60200260200101818152505080915050919050565b60006118bd826040518060400160405280602081526020017f5361666545524332303a206c6f772d6c6576656c2063616c6c206661696c65648152508573ffffffffffffffffffffffffffffffffffffffff16611b1d9092919063ffffffff16565b905060008151111561191d57808060200190518101906118dd9190613241565b61191c576040517f08c379a0000000000000000000000000000000000000000000000000000000008152600401611913906132e0565b60405180910390fd5b5b505050565b6119418473ffffffffffffffffffffffffffffffffffffffff16611afa565b15611af2578373ffffffffffffffffffffffffffffffffffffffff1663f23a6e6187878686866040518663ffffffff1660e01b8152600401611987959493929190613300565b6020604051808303816000875af19250505080156119c357506040513d601f19601f820116820180604052508101906119c09190613016565b60015b611a69576119cf613050565b806308c379a01415611a2c57506119e4613072565b806119ef5750611a2e565b806040517f08c379a0000000000000000000000000000000000000000000000000000000008152600401611a239190611fbd565b60405180910390fd5b505b6040517f08c379a0000000000000000000000000000000000000000000000000000000008152600401611a609061317a565b60405180910390fd5b63f23a6e6160e01b7bffffffffffffffffffffffffffffffffffffffffffffffffffffffff1916817bffffffffffffffffffffffffffffffffffffffffffffffffffffffff191614611af0576040517f08c379a0000000000000000000000000000000000000000000000000000000008152600401611ae79061320c565b60405180910390fd5b505b505050505050565b6000808273ffffffffffffffffffffffffffffffffffffffff163b119050919050565b6060611b2c8484600085611b35565b90509392505050565b606082471015611b7a576040517f08c379a0000000000000000000000000000000000000000000000000000000008152600401611b71906133cc565b60405180910390fd5b611b8385611afa565b611bc2576040517f08c379a0000000000000000000000000000000000000000000000000000000008152600401611bb990613438565b60405180910390fd5b6000808673ffffffffffffffffffffffffffffffffffffffff168587604051611beb9190613494565b60006040518083038185875af1925050503d8060008114611c28576040519150601f19603f3d011682016040523d82523d6000602084013e611c2d565b606091505b5091509150611c3d828286611c49565b92505050949350505050565b60608315611c5957829050611ca9565b600083511115611c6c5782518084602001fd5b816040517f08c379a0000000000000000000000000000000000000000000000000000000008152600401611ca09190611fbd565b60405180910390fd5b9392505050565b6000604051905090565b600080fd5b600080fd5b600073ffffffffffffffffffffffffffffffffffffffff82169050919050565b6000611cef82611cc4565b9050919050565b611cff81611ce4565b8114611d0a57600080fd5b50565b600081359050611d1c81611cf6565b92915050565b6000819050919050565b611d3581611d22565b8114611d4057600080fd5b50565b600081359050611d5281611d2c565b92915050565b60008060408385031215611d6f57611d6e611cba565b5b6000611d7d85828601611d0d565b9250506020611d8e85828601611d43565b9150509250929050565b611da181611d22565b82525050565b6000602082019050611dbc6000830184611d98565b92915050565b60007fffffffff0000000000000000000000000000000000000000000000000000000082169050919050565b611df781611dc2565b8114611e0257600080fd5b50565b600081359050611e1481611dee565b92915050565b600060208284031215611e3057611e2f611cba565b5b6000611e3e84828501611e05565b91505092915050565b60008115159050919050565b611e5c81611e47565b82525050565b6000602082019050611e776000830184611e53565b92915050565b6000819050919050565b6000611ea2611e9d611e9884611cc4565b611e7d565b611cc4565b9050919050565b6000611eb482611e87565b9050919050565b6000611ec682611ea9565b9050919050565b611ed681611ebb565b82525050565b6000602082019050611ef16000830184611ecd565b92915050565b600060208284031215611f0d57611f0c611cba565b5b6000611f1b84828501611d43565b91505092915050565b600081519050919050565b600082825260208201905092915050565b60005b83811015611f5e578082015181840152602081019050611f43565b83811115611f6d576000848401525b50505050565b6000601f19601f8301169050919050565b6000611f8f82611f24565b611f998185611f2f565b9350611fa9818560208601611f40565b611fb281611f73565b840191505092915050565b60006020820190508181036000830152611fd78184611f84565b905092915050565b600080fd5b7f4e487b7100000000000000000000000000000000000000000000000000000000600052604160045260246000fd5b61201c82611f73565b810181811067ffffffffffffffff8211171561203b5761203a611fe4565b5b80604052505050565b600061204e611cb0565b905061205a8282612013565b919050565b600067ffffffffffffffff82111561207a57612079611fe4565b5b602082029050602081019050919050565b600080fd5b60006120a361209e8461205f565b612044565b905080838252602082019050602084028301858111156120c6576120c561208b565b5b835b818110156120ef57806120db8882611d43565b8452602084019350506020810190506120c8565b5050509392505050565b600082601f83011261210e5761210d611fdf565b5b813561211e848260208601612090565b91505092915050565b600080fd5b600067ffffffffffffffff82111561214757612146611fe4565b5b61215082611f73565b9050602081019050919050565b82818337600083830152505050565b600061217f61217a8461212c565b612044565b90508281526020810184848401111561219b5761219a612127565b5b6121a684828561215d565b509392505050565b600082601f8301126121c3576121c2611fdf565b5b81356121d384826020860161216c565b91505092915050565b600080600080600060a086880312156121f8576121f7611cba565b5b600061220688828901611d0d565b955050602061221788828901611d0d565b945050604086013567ffffffffffffffff81111561223857612237611cbf565b5b612244888289016120f9565b935050606086013567ffffffffffffffff81111561226557612264611cbf565b5b612271888289016120f9565b925050608086013567ffffffffffffffff81111561229257612291611cbf565b5b61229e888289016121ae565b9150509295509295909350565b600067ffffffffffffffff8211156122c6576122c5611fe4565b5b602082029050602081019050919050565b60006122ea6122e5846122ab565b612044565b9050808382526020820190506020840283018581111561230d5761230c61208b565b5b835b8181101561233657806123228882611d0d565b84526020840193505060208101905061230f565b5050509392505050565b600082601f83011261235557612354611fdf565b5b81356123658482602086016122d7565b91505092915050565b6000806040838503121561238557612384611cba565b5b600083013567ffffffffffffffff8111156123a3576123a2611cbf565b5b6123af85828601612340565b925050602083013567ffffffffffffffff8111156123d0576123cf611cbf565b5b6123dc858286016120f9565b9150509250929050565b600081519050919050565b600082825260208201905092915050565b6000819050602082019050919050565b61241b81611d22565b82525050565b600061242d8383612412565b60208301905092915050565b6000602082019050919050565b6000612451826123e6565b61245b81856123f1565b935061246683612402565b8060005b8381101561249757815161247e8882612421565b975061248983612439565b92505060018101905061246a565b5085935050505092915050565b600060208201905081810360008301526124be8184612446565b905092915050565b6124cf81611e47565b81146124da57600080fd5b50565b6000813590506124ec816124c6565b92915050565b6000806040838503121561250957612508611cba565b5b600061251785828601611d0d565b9250506020612528858286016124dd565b9150509250929050565b6000806040838503121561254957612548611cba565b5b600061255785828601611d0d565b925050602061256885828601611d0d565b9150509250929050565b6000806040838503121561258957612588611cba565b5b600061259785828601611d0d565b925050602083013567ffffffffffffffff8111156125b8576125b7611cbf565b5b6125c4858286016121ae565b9150509250929050565b600080600080600060a086880312156125ea576125e9611cba565b5b60006125f888828901611d0d565b955050602061260988828901611d0d565b945050604061261a88828901611d43565b935050606061262b88828901611d43565b925050608086013567ffffffffffffffff81111561264c5761264b611cbf565b5b612658888289016121ae565b9150509295509295909350565b7f455243313135353a2062616c616e636520717565727920666f7220746865207a60008201527f65726f2061646472657373000000000000000000000000000000000000000000602082015250565b60006126c1602b83611f2f565b91506126cc82612665565b604082019050919050565b600060208201905081810360008301526126f0816126b4565b9050919050565b7f4e487b7100000000000000000000000000000000000000000000000000000000600052602260045260246000fd5b6000600282049050600182168061273e57607f821691505b60208210811415612752576127516126f7565b5b50919050565b7f455243313135353a207472616e736665722063616c6c6572206973206e6f742060008201527f6f776e6572206e6f7220617070726f7665640000000000000000000000000000602082015250565b60006127b4603283611f2f565b91506127bf82612758565b604082019050919050565b600060208201905081810360008301526127e3816127a7565b9050919050565b7f455243313135353a206163636f756e747320616e6420696473206c656e67746860008201527f206d69736d617463680000000000000000000000000000000000000000000000602082015250565b6000612846602983611f2f565b9150612851826127ea565b604082019050919050565b6000602082019050818103600083015261287581612839565b9050919050565b7f4e487b7100000000000000000000000000000000000000000000000000000000600052603260045260246000fd5b7f4e487b7100000000000000000000000000000000000000000000000000000000600052601160045260246000fd5b60006128e582611d22565b91507fffffffffffffffffffffffffffffffffffffffffffffffffffffffffffffffff821415612918576129176128ab565b5b600182019050919050565b7f416d6f756e742073686f756c6420626520626967676572207468616e20300000600082015250565b6000612959601e83611f2f565b915061296482612923565b602082019050919050565b600060208201905081810360008301526129888161294c565b9050919050565b7f455243313135353a2063616c6c6572206973206e6f74206f776e6572206e6f7260008201527f20617070726f7665640000000000000000000000000000000000000000000000602082015250565b60006129eb602983611f2f565b91506129f68261298f565b604082019050919050565b60006020820190508181036000830152612a1a816129de565b9050919050565b7f455243313135353a2069647320616e6420616d6f756e7473206c656e6774682060008201527f6d69736d61746368000000000000000000000000000000000000000000000000602082015250565b6000612a7d602883611f2f565b9150612a8882612a21565b604082019050919050565b60006020820190508181036000830152612aac81612a70565b9050919050565b7f455243313135353a207472616e7366657220746f20746865207a65726f20616460008201527f6472657373000000000000000000000000000000000000000000000000000000602082015250565b6000612b0f602583611f2f565b9150612b1a82612ab3565b604082019050919050565b60006020820190508181036000830152612b3e81612b02565b9050919050565b7f455243313135353a20696e73756666696369656e742062616c616e636520666f60008201527f72207472616e7366657200000000000000000000000000000000000000000000602082015250565b6000612ba1602a83611f2f565b9150612bac82612b45565b604082019050919050565b60006020820190508181036000830152612bd081612b94565b9050919050565b6000612be282611d22565b9150612bed83611d22565b9250827fffffffffffffffffffffffffffffffffffffffffffffffffffffffffffffffff03821115612c2257612c216128ab565b5b828201905092915050565b60006040820190508181036000830152612c478185612446565b90508181036020830152612c5b8184612446565b90509392505050565b7f455243313135353a206275726e2066726f6d20746865207a65726f206164647260008201527f6573730000000000000000000000000000000000000000000000000000000000602082015250565b6000612cc0602383611f2f565b9150612ccb82612c64565b604082019050919050565b60006020820190508181036000830152612cef81612cb3565b9050919050565b7f455243313135353a206275726e20616d6f756e7420657863656564732062616c60008201527f616e636500000000000000000000000000000000000000000000000000000000602082015250565b6000612d52602483611f2f565b9150612d5d82612cf6565b604082019050919050565b60006020820190508181036000830152612d8181612d45565b9050919050565b6000604082019050612d9d6000830185611d98565b612daa6020830184611d98565b9392505050565b7f455243313135353a2073657474696e6720617070726f76616c2073746174757360008201527f20666f722073656c660000000000000000000000000000000000000000000000602082015250565b6000612e0d602983611f2f565b9150612e1882612db1565b604082019050919050565b60006020820190508181036000830152612e3c81612e00565b9050919050565b612e4c81611ce4565b82525050565b6000606082019050612e676000830186612e43565b612e746020830185612e43565b612e816040830184611d98565b949350505050565b7f455243313135353a206d696e7420746f20746865207a65726f2061646472657360008201527f7300000000000000000000000000000000000000000000000000000000000000602082015250565b6000612ee5602183611f2f565b9150612ef082612e89565b604082019050919050565b60006020820190508181036000830152612f1481612ed8565b9050919050565b6000604082019050612f306000830185612e43565b612f3d6020830184611d98565b9392505050565b600081519050919050565b600082825260208201905092915050565b6000612f6b82612f44565b612f758185612f4f565b9350612f85818560208601611f40565b612f8e81611f73565b840191505092915050565b600060a082019050612fae6000830188612e43565b612fbb6020830187612e43565b8181036040830152612fcd8186612446565b90508181036060830152612fe18185612446565b90508181036080830152612ff58184612f60565b90509695505050505050565b60008151905061301081611dee565b92915050565b60006020828403121561302c5761302b611cba565b5b600061303a84828501613001565b91505092915050565b60008160e01c9050919050565b600060033d111561306f5760046000803e61306c600051613043565b90505b90565b600060443d101561308257613105565b61308a611cb0565b60043d036004823e80513d602482011167ffffffffffffffff821117156130b2575050613105565b808201805167ffffffffffffffff8111156130d05750505050613105565b80602083010160043d0385018111156130ed575050505050613105565b6130fc82602001850186612013565b82955050505050505b90565b7f455243313135353a207472616e7366657220746f206e6f6e204552433131353560008201527f526563656976657220696d706c656d656e746572000000000000000000000000602082015250565b6000613164603483611f2f565b915061316f82613108565b604082019050919050565b6000602082019050818103600083015261319381613157565b9050919050565b7f455243313135353a204552433131353552656365697665722072656a6563746560008201527f6420746f6b656e73000000000000000000000000000000000000000000000000602082015250565b60006131f6602883611f2f565b91506132018261319a565b604082019050919050565b60006020820190508181036000830152613225816131e9565b9050919050565b60008151905061323b816124c6565b92915050565b60006020828403121561325757613256611cba565b5b60006132658482850161322c565b91505092915050565b7f5361666545524332303a204552433230206f7065726174696f6e20646964206e60008201527f6f74207375636365656400000000000000000000000000000000000000000000602082015250565b60006132ca602a83611f2f565b91506132d58261326e565b604082019050919050565b600060208201905081810360008301526132f9816132bd565b9050919050565b600060a0820190506133156000830188612e43565b6133226020830187612e43565b61332f6040830186611d98565b61333c6060830185611d98565b818103608083015261334e8184612f60565b90509695505050505050565b7f416464726573733a20696e73756666696369656e742062616c616e636520666f60008201527f722063616c6c0000000000000000000000000000000000000000000000000000602082015250565b60006133b6602683611f2f565b91506133c18261335a565b604082019050919050565b600060208201905081810360008301526133e5816133a9565b9050919050565b7f416464726573733a2063616c6c20746f206e6f6e2d636f6e7472616374000000600082015250565b6000613422601d83611f2f565b915061342d826133ec565b602082019050919050565b6000602082019050818103600083015261345181613415565b9050919050565b600081905092915050565b600061346e82612f44565b6134788185613458565b9350613488818560208601611f40565b80840191505092915050565b60006134a08284613463565b91508190509291505056fea2646970667358221220864d08d4213bc12cdcf4829a3b874244faeaf85ce67b37f9745cb2c8f4d4577664736f6c634300080b0033",
  "linkReferences": {},
  "deployedLinkReferences": {}
}